:0400000085EF00F098
:100008001B7B1B7B1B7B1B7B1B7B1B7B1B7B1B7B38
:100018001B7B1B7B1B7B1B7B1B7B1B7B1B7B1B7B28
:100028001B7B1B7B1B7B1B7B1B7B1B7B1B7B1B7B18
:100038001B7B1B7B1B7B1B7B1B7B1B7B1B7BC67761
:100048001B7B1B7B1B7B1B7B1B7B1B7B1B7B1B7BF8
:100058001B7B1B7B1B7B1B7B1B7B1B7B1B7B1B7BE8
:100068001B7B1B7B1B7B1B7B1B7B1B7B1B7B1B7BD8
:100078001B7B1B7B1B7B1B7B42001B7B1B7B1B7B1C
:100088001B7B1B7B1B7B1B7B1B7B1B7B1B7B1B7BB8
:100098000F771B7B1B7B1B7B42001B7B1B7B1B7B0C
:1000A8001B7B1B7B1B7B1B7B1B7B1B7B1B7B1B7B98
:1000B8001B7B1B7B1B7B1B7B1B7B1B7B1B7B1B7B88
:1000C8001B7B1B7B1B7B1B7B1B7B1B7B1B7B1B7B78
:1000D80066791B7B1B7B1B7B1B7B1B7B1B7B1B7B1F
:1000E80042001B7B1B7B1B7B1B7B1B7B1B7B1B7BAC
:1000F8001B7B1B7B1B7B1B7B1B7B1B7B1B7B1B7B48
:06010800FF00C1EFE5F06D
:10F42C00001F001C001F001E001F001E001F001FDD
:10F43C00001E001F001E001F00819FE0FC407E800C
:10F44C00FC0000534420436172643A20726561648D
:10F45C003531323A20435243206572726F72202844
:10F46C002530347820213D20253034782C207265CD
:10F47C007472793D2564290A0D00496D6167652018
:10F48C0066696C652025732F445249564525632EB9
:10F49C0044534B2069732061737369676E656420F4
:10F4AC00746F2064726976652025630A0D005344DD
:10F4BC0020436172643A2020726561643531323ABE
:10F4CC0020616464723D25386C642C206F66667311
:10F4DC003D25642C20636F756E743D25640A0D0008
:10F4EC00534420436172643A2077726974653531F4
:10F4FC00323A20616464723D25386C642C206F664E
:10F50C0066733D25642C20636F756E743D25640A0B
:10F51C000D00534420436172643A2077726974651C
:10F52C003531323A206661696C656420746F2067EE
:10F53C00657420746F6B656E2C2074696D656F75C6
:10F54C00740A0D006469736B5F696F63746C3A20A5
:10F55C00706472763D25642C20636D643D25642CAB
:10F56C0020627566663D3078256C783A207265733A
:10F57C003D25640A0D00534420436172643A2077A0
:10F58C00726974653531323A2074696D656F7574C2
:10F59C002C20726573706F6E736520697320253033
:10F5AC0032780A0D00534420436172643A20434D73
:10F5BC004435382C2052333D2530327820253032DA
:10F5CC00782025303278202530327820253032785A
:10F5DC000A0D0025733A204552524F523A20636C63
:10F5EC006F636B20737065656420256420697320DC
:10F5FC006E6F7420737570706F727465640A0D0091
:10F60C00534420436172643A20434D44382C2052B9
:10F61C00373D25303278202530327820253032782D
:10F62C00202530327820253032780A0D005365744D
:10F63C0075702044533133303720525443206D6F52
:10F64C0064756C6520666F7220636C6F636B2064ED
:10F65C0065766963652E0D0A006469736B5F696F6B
:10F66C0063746C3A20706472763D25642C20636D53
:10F67C00643D25643A204E6F742068616E646C653D
:10F68C00642E0A0D006469736B5F726561643A20C5
:10F69C0020706472763D25642C20736563746F72E0
:10F6AC003D256C642C20636F756E743D25640A0DCA
:10F6BC00006469736B5F77726974653A2070647269
:10F6CC00763D25642C20736563746F723D256C64E4
:10F6DC002C20636F756E743D25640A0D0053442015
:10F6EC00436172643A20434353202843617264207F
:10F6FC004361706163697479205374617475732903
:10F70C0020697320300A0D00534420436172643A1F
:10F71C002077726974653531323A20435243206543
:10F72C0072726F72202872657472793D2564290A91
:10F73C000D00534420436172643A2043617264208B
:10F74C00706F776572207570207374617475732097
:10F75C0062697320697320300A0D00726561642040
:10F76C004D425220706172746974696F6E207461BD
:10F77C00626C6520617420736563746F7220300A4B
:10F78C000D00534420436172643A20534448432093
:10F79C006F72205344584320636172642064657413
:10F7AC0065637465640A0D0025733A204552524F07
:10F7BC00523A206D6F6465202564206973206E6F4A
:10F7CC007420737570706F727465640A0D004C6FE1
:10F7DC006164202573203A20416472203D2025303D
:10F7EC00366C782C2053697A65203D20253034788E
:10F7FC000D0A00534420436172643A20696E6974A7
:10F80C0069616C697A65202E2E2E20737563636591
:10F81C00656465640A0D00534420436172643A20A8
:10F82C00756E657870656374656420726573706F4E
:10F83C006E736520253032780A0D005344204361E5
:10F84C0072643A2041434D44343120726573706FB9
:10F85C006E736520697320253032780A0D0053448D
:10F86C0020436172643A2077726974653531323A9B
:10F87C0020746F6B656E20697320253032780A0D09
:10F88C0000534420436172643A20434D443539207F
:10F89C00726573706F6E73652069732025303278D2
:10F8AC000A0D004D656D6F7279203030303030307C
:10F8BC00202D202530366C5848202564204B4220C2
:10F8CC004F4B0D0A0053657475702074696D657229
:10F8DC003020666F7220636C6F636B206465766991
:10F8EC0063652E0D0A00706172746974696F6E2005
:10F8FC0073746172747320617420736563746F72B6
:10F90C0020256C640A0D00665F777269746528297E
:10F91C003A204552524F52207265733D25642C207B
:10F92C006E3D25640A0D00665F7265616428293A94
:10F93C00204552524F52207265733D25642C206E27
:10F94C003D25640A0D005365747570205541525461
:10F95C003520666F72204155582064657669636561
:10F96C002E0A0D000D0A5365742044617465282518
:10F97C003034642F253032642F25303264290D0A3F
:10F98C0000554E4B4E4F574E20444556494345204B
:10F99C003A20434D442825303278290D0A006661FF
:10F9AC00696C656420746F20777269746520736567
:10F9BC0063746F7220256C640A0D000A0D53442089
:10F9CC00436172643A20696E697469616C697A6525
:10F9DC00202E2E2E0A0D006661696C656420746FF2
:10F9EC00207265616420736563746F7220256C648A
:10F9FC000A0D00534420436172643A2041434D4444
:10FA0C0034312C2052313D253032780A0D005365AB
:10FA1C00742054696D6528253032643A253032647F
:10FA2C003A25303264290D0A0050726F6772616D8D
:10FA3C002046696C65204C6F6164204572726F7250
:10FA4C002E0D0A004661696C656420746F206D6F21
:10FA5C00756E7420534420436172642E0A0D005558
:10FA6C004E4B4E4F574E20756E696D6F6E20434D49
:10FA7C00442825303278290D0A004661696C65648A
:10FA8C0020746F206F70656E205344204361726444
:10FA9C002E0A0D004D455A38385F52414D204669AB
:10FAAC00726D7761726520526576312E34000A4D85
:10FABC00656D6F7279206572726F7220617420258A
:10FACC0030366C58480A0D006661696C65642074A8
:10FADC006F207265616420736563746F7220300AE5
:10FAEC000D00534420436172643A206E6F7420738E
:10FAFC0075706F70727465640A0D00534420436115
:10FB0C0072643A20434D44302C2052313D25303222
:10FB1C00780A0D00202020202020202020202020CA
:10FB2C0020202020202020202020200D007761691B
:10FB3C007420666F722070726F6772616D6D657282
:10FB4C00202E2E2E0D00445331333037205769743C
:10FB5C006520493243206572726F72210D0A004E86
:10FB6C006F202573206469726563746F72792066E7
:10FB7C006F756E642E0D0A00333A546F796F73688B
:10FB8C00696B692054696E792042617369630A0D4F
:10FB9C00006469736B5F696E697469616C697A651D
:10FBAC00282564292E2E2E0A0D004D656D6F727955
:10FBBC0020303030303030202D202530366C5848F5
:10FBCC000D0049324320627573206973206E6F7487
:10FBDC002065786973742E0A0D00257325353373EF
:10FBEC0020434845434B53554D3A20253032780A33
:10FBFC000D00353A47414D452D4320496E746572D1
:10FC0C007072657465720A0D00446174652025304C
:10FC1C0034642F253032642F25303264203D20008F
:10FC2C0054696D6520253032643A253032643A25AA
:10FC3C00303264203D20000A4D656D6F727920775B
:10FC4C007261702061726F756E642E0A0D0070689F
:10FC5C0079736963616C2064726976657220213DE9
:10FC6C0020300A0D00323A38303836204E4153439A
:10FC7C004F4D2042415349430A0D00313A556E69AC
:10FC8C0076657273616C204D6F6E69746F720A0DBC
:10FC9C0000665F6C7365656B28293A204552524F9C
:10FCAC00522025640A0D00303A544F442854696D93
:10FCBC0065204F6620446179290A0D00665F7379CF
:10FCCC006E6328293A204552524F522025640A0D62
:10FCDC00006E6F2046415433322070617274697427
:10FCEC00696F6E0A0D004E6F206472697665204153
:10FCFC0020666F756E642E0A0D00534420436172AA
:10FD0C00643A2074696D656F75740A0D0046696CF0
:10FD1C00652072656164206572726F72210D0A0034
:10FD2C00342E39324D487A20647574792033382E4C
:10FD3C00342500392E31344D487A2064757479207D
:10FD4C0034322E392500445331333037205254434A
:10FD5C00206D6F64756C6520006E6F204D425220D3
:10FD6C007369676E61747572650A0D0053442043A4
:10FD7C006172643A2072656164792E0A0D005365D4
:10FD8C0074206465627567206D6F64652E0D0A00C2
:10FD9C0031302E36374D487A2064757479203530E1
:10FDAC0025006E6F2076616C696420766F6C756DC2
:10FDBC00650A0D005350495F53445F636F6E66696B
:10FDCC0067757265002573206E6F7420666F756E93
:10FDDC00642E2E0D0A0031322E384D487A2064756F
:10FDEC0074792036302500384D487A206475747942
:10FDFC002033372E3525006973206E6F742065789B
:10FE0C006973742E0D0A0043505520636C6F636B3D
:10FE1C002025730D0A0031364D487A2064757479AB
:10FE2C00203530250025732F445249564525632E25
:10FE3C0044534B002A2B2C3A3B3C3D3E5B5D7C22D1
:10FE4C003F7F004E6F20534420436172643F0A0D84
:10FE5C000042415349435F38362E42494E005454B8
:10FE6C005F42415338382E42494E00554D4F4E5F3C
:10FE7C005338382E42494E004343505F42444F534F
:10FE8C002E42494E00363A43502F4D2D38360A0D2E
:10FE9C00000A0D53656C6563743A0A0D00426F617C
:10FEAC0072643A2025730A0D0044657465637420EE
:10FEBC0025730A0D00474D495F5338382E42494E81
:10FECC000056544C5F5338382E42494E00434C4B2D
:10FEDC00203D2025640D0A00373A4D532D444F53D5
:10FEEC000A0D00554E494D4F4E5F4F464600554E3C
:10FEFC00494D4F4E5F534547004C6F61642025734D
:10FF0C000D0A00343A56544C2D430A0D0043424915
:10FF1C004F535F4F464600494F5359535F4F464628
:10FF2C0000494F5359535F534547004D455A383894
:10FF3C002E434647004342494F532E42494E004DF3
:10FF4C0053444F532E535953006578697374732E71
:10FF5C000D0A0041504C495F4F46460041504C49F8
:10FF6C005F5345470043504D4449534B5300444F56
:10FF7C00534449534B530025732530366C783A0063
:10FF8C0046415433322020200043504D5F4F4646AB
:10FF9C000043504D5F534547002573253034783A64
:10FFAC0000286E756C6C2900494F2E53595300254F
:10FFBC00732F2573006275663A2000202530327845
:10FFCC00006661743A200053443A2000303A2F2FD7
:10FFDC0000455845430052443A200057523A2000FD
:10FFEC00434C4B00494E46004E614E003F20004FA3
:03FFFC00560000AC
:020000040001F9
:10000000FCC5D9F4FDC5DAF4DE6ADD6AFAC507F588
:10001000FBC508F517ECC8F007C58DF608C58EF6C8
:1000200006018EBF18EF80F016EF80F01BEF80F016
:100030000B0E6AEF85F0D8908D35D96E8E35DA6E5D
:100040003B0ED926070EDA22DEC4A8F6DDC4A9F6D7
:10005000A851A911D8A42FEF80F031EF80F034EF30
:1000600080F00C0E6AEF85F0FCC5D9F4FDC5DAF41A
:10007000A8C6DEF4A9C6DDF40501FE91A8C6D9F430
:10008000A9C6DAF4DF50D8B448EF80F04AEF80F028
:1000900074EF80F0060120EE01F0A851D926A95195
:1000A000DA22DF5030ECF3F006019D6F9DB15BEF7B
:1000B00080F05DEF80F074EF80F00501FE51D8B460
:1000C00064EF80F066EF80F071EF80F006019DA58F
:1000D0006CEF80F06EEF80F071EF80F00A0E6AEF47
:1000E00085F0000E6AEF85F0A8C6D9F4A9C6DAF447
:1000F000DF6A060120EE01F0A851D926A951DA22C3
:10010000DF507AECC6F006019D6F9DA18AEF80F06A
:100110008CEF80F08FEF80F0030E6AEF85F0050121
:10012000FE51D8B496EF80F098EF80F0A2EF80F007
:1001300006019DA59EEF80F0A0EF80F0A2EF80F079
:100140006EEF80F0A8C6DCF5A9C6DDF50501DF6B12
:10015000000EDE6F64ECC0F0DCC5A6F6DDC5A7F6C8
:10016000040E0601A619A711D8A4B9EF80F0BBEFC1
:1001700080F0BEEF80F0010E6AEF85F0A75109E133
:10018000020EA65DD8A0C7EF80F0C9EF80F0CCEFDB
:1001900080F00D0E6AEF85F020EE2CF0A851D926E4
:1001A000A951DA22DEC499F6DEC49AF6DEC49BF6C3
:1001B000DEC49CF63B0EA825076E000EA921086E32
:1001C000E1ECF3F0020E08180710D8B4EAEF80F063
:1001D000ECEF80F0EEEF80F0C9EF80F0460E060104
:1001E000A825076E000EA921086EE1ECF3F007C503
:1001F000A2F608C5A3F60601A46BA56BA251A31134
:10020000A411A511D8A407EF81F009EF81F019EF2F
:1002100081F0540EA825076E000EA921086E5AEC35
:10022000E4F007C5A2F608C5A3F609C5A4F60AC5F9
:10023000A5F6060120EE18F0A851D926A951DA2218
:10024000A2C6DEF4A3C6DEF4A4C6DEF4A5C6DEF4C0
:1002500020EE40F0A851D926A951DA2210EE03F081
:10026000A851E126A951E222DFC4E7F420EE03F011
:10027000A851D926A951DA22DE04D8B442EF81F080
:1002800044EF81F055EF81F020EE03F0A851D9261C
:10029000A951DA22020EDE18D8B451EF81F053EFE3
:1002A00081F055EF81F0C9EF80F0A2C607F5A3C633
:1002B00008F5A4C609F5A5C60AF520EE03F0A85175
:1002C000D926A951DA22DF50816F81510B6E0C6A59
:1002D0000D6A0E6A8DECEEF007C5A2F608C5A3F60E
:1002E00009C5A4F60AC5A5F6060120EE3DF0A85101
:1002F000D926A951DA22DF50816F826B20EE0AF0F5
:10030000A851D926A951DA2281C6DEF482C6DDF4CD
:1003100020EE0AF0A851D926A951DA22DE50DE10CB
:10032000D8B495EF81F097EF81F0C9EF80F020EE1F
:100330000AF0A851D926A951DA22DEC481F6DDC41B
:1003400082F620EE0AF0A851D926A951DA22DEC49D
:1003500083F6DDC484F6FF0E8325856FFF0E8421AE
:10036000866F81518515876F82518615886F8751F9
:100370008811D8B4BEEF81F0C0EF81F0C2EF81F0F8
:10038000C9EF80F0410EA825076E000EA921086E66
:10039000E1ECF3F0060120EE08F0A851D926A951AE
:1003A000DA2207C5DEF408C5DDF420EE08F0A85116
:1003B000D926A951DA22DEC481F6DDC482F60F0EF9
:1003C0008117000E821781518211D8B4EAEF81F0B3
:1003D000ECEF81F0EEEF81F0C9EF80F0430EA8253D
:1003E000076E000EA921086EE1ECF3F007C595F643
:1003F00008C596F60601976B986B95519611971163
:100400009811D8A406EF82F008EF82F018EF82F07E
:10041000500EA825076E000EA921086E5AECE4F0D4
:1004200007C595F608C596F609C597F60AC598F664
:100430003E0E0601A825076E000EA921086EE1EC0C
:10044000F3F007C593F608C594F60601935194118D
:10045000D8A42DEF82F02FEF82F031EF82F0C9EFB8
:1004600080F020EE08F0A851D926A951DA22DEC486
:1004700081F6DDC482F6040E836FD8908233813317
:10048000832F3DEF82F093518125846F9451822117
:10049000856F866BD8B0862B876BA25184258F6FB2
:1004A000A3518521906FA4518621916FA551872179
:1004B000926F8F51955D90519659915197599251E4
:1004C0009859D8B066EF82F068EF82F06AEF82F058
:1004D000C9EF80F08F51955D076E90519659086E67
:1004E00091519759096E925198590A6E20EE0AF06F
:1004F000A851D926A951DA22DEC481F6DDC482F6DC
:1005000081C60BF582C60CF50D6A0E6A13ECE7F096
:1005100007C59EF608C59FF609C5A0F60AC5A1F64F
:1005200006019E519F11A011A111D8A49AEF82F04B
:100530009CEF82F09EEF82F0C9EF80F0A76B000E77
:10054000A66FF60E9E5DFF0E9F59FF0EA0590F0E6F
:10055000A159D8B0AEEF82F0B0EF82F0B3EF82F0E5
:10056000A76B030EA66FA151A01109E1F60E9E5DC7
:10057000FF0E9F59D8B0BFEF82F0C1EF82F0C4EFF9
:1005800082F0A76B020EA66FA151A01109E1F60E31
:100590009E5D0F0E9F59D8B0D0EF82F0D2EF82F05F
:1005A000D5EF82F0A76B010EA66FA651A711D8A4B4
:1005B000DCEF82F0DEEF82F0E0EF82F0C9EF80F056
:1005C000020E9E25816F000E9F21826F000EA021DA
:1005D000836F000EA121846F20EE14F0A851D9265C
:1005E000A951DA2281C6DEF482C6DEF483C6DEF4C7
:1005F00084C6DEF420EE1CF0A851D926A951DA22D7
:1006000099C6DEF49AC6DEF49BC6DEF49CC6DEF420
:1006100093519925816F94519A21826F000E9B21ED
:10062000836F000E9C21846F20EE20F0A851D92604
:10063000A951DA2281C6DEF482C6DEF483C6DEF476
:1006400084C6DEF48F519925816F90519A21826F73
:1006500091519B21836F92519C21846F20EE28F051
:10066000A851D926A951DA2281C6DEF482C6DEF469
:1006700083C6DEF484C6DEF4030EA619A711D8A43F
:1006800044EF83F046EF83F0A3EF83F05A0EA825E2
:10069000076E000EA921086EE1ECF3F00750081078
:1006A000D8B455EF83F057EF83F059EF83F0C9EFDB
:1006B00080F0060120EE08F0A851D926A951DA22CF
:1006C000DE50DE10D8B467EF83F069EF83F06BEF94
:1006D00083F0C9EF80F05C0EA825076E000EA921FB
:1006E000086E5AECE4F0060120EE24F0A851D92659
:1006F000A951DA2207C5DEF408C5DEF409C5DEF427
:100700000AC5DEF420EE14F0A851D926A951DA2248
:10071000DEC481F6DEC482F6DEC483F6DEC484F66F
:10072000020ED8908137823783378437E82E91EFD5
:1007300083F081C689F682C68AF683C68BF684C6A4
:100740008CF643EF84F020EE08F0A851D926A95189
:10075000DA22DE50DE10D8A4B0EF83F0B2EF83F0DF
:10076000B4EF83F0C9EF80F020EE20F0A851D92635
:10077000A951DA22DEC481F6DEC482F6DEC483F635
:10078000DEC484F6A2518125856FA3518221866F34
:10079000A4518321876FA5518421886F20EE24F016
:1007A000A851D926A951DA2285C6DEF486C6DEF420
:1007B00087C6DEF488C6DEF4020EA619A711D8B4E7
:1007C000E4EF83F0E6EF83F02CEF84F020EE14F0FA
:1007D000A851D926A951DA22DEC481F6DEC482F6F8
:1007E000DEC483F6DEC484F6010E8115856F000E2B
:1007F0008215866F000E8315876F000E8415886F33
:1008000020EE14F0A851D926A951DA22DEC407F54A
:10081000DEC408F5DEC409F5DEC40AF5030E0B6E6E
:10082000000E0C6E000E0D6E000E0E6E8DECEEF0D6
:10083000D8900A320932083207320601855107245E
:10084000896F865108208A6F875109208B6F8851E4
:100850000A208C6F43EF84F020EE14F0A851D926C3
:10086000A951DA22DEC481F6DEC482F6DEC483F644
:10087000DEC484F6D8908135896F82358A6F8335DE
:100880008B6F84358C6FFF0E8925816F010E8A2155
:10089000826F000E8B21836F000E8C21846F0A0EF5
:1008A00057EF84F0D8908433833382338133E82E3A
:1008B00052EF84F020EE18F0A851D926A951DA227F
:1008C0008151DE5C8251DE588351DE588451DE58FE
:1008D000D8B06DEF84F06FEF84F071EF84F0C9EF62
:1008E00080F020EE10F0A851D926A951DA22FF0E8F
:1008F000DE6EFF0EDE6EFF0EDE6EFF0EDD6E82E937
:1009000010EE0CF0A851E126A951E222DEC4E6F473
:10091000DEC4E6F4DEC4E6F4DEC4E6F420EE05F060
:10092000A851D926A951DA22800EDF6E030EA6192E
:10093000A711D8A49EEF84F0A0EF84F054EF85F0C7
:10094000600EA825076E000EA921086EE1ECF3F0F9
:1009500007040810D8A4AFEF84F0B1EF84F054EF8F
:1009600085F0A8C6C3F5A9C6C4F5010E06019925F0
:100970000501C56F000E06019A210501C66F000E24
:1009800006019B210501C76F000E06019C21050190
:10099000C86FD5ECE2F00009D8A4D1EF84F0D3EF12
:1009A00084F054EF85F0060120EE05F0A851D92619
:1009B000A951DA22DF6A2E0EA825076E020EA921A0
:1009C000086EE1ECF3F0550E071807E1AA0E0818BF
:1009D000D8A4EDEF84F0EFEF84F054EF85F0300E03
:1009E0000601A825076E000EA921086E5AECE4F056
:1009F000520E07180DE1520E08180AE1610E09188F
:100A000007E1410E0A18D8A408EF85F00AEF85F037
:100A100054EF85F0140E0601A825076E020EA921D9
:100A2000086E5AECE4F0720E07180DE1720E081809
:100A30000AE1410E091807E1610E0A18D8A423EF54
:100A400085F025EF85F054EF85F0180E0601A825F6
:100A5000076E020EA921086E5AECE4F0060120EEA2
:100A600010F0A851D926A951DA2207C5DEF408C52D
:100A7000DEF409C5DEF40AC5DEF41C0EA825076EF7
:100A8000020EA921086E5AECE4F0060120EE0CF0EB
:100A9000A851D926A951DA2207C5DEF408C5DEF42B
:100AA00009C5DEF40AC5DEF4A8C6D9F4A9C6DAF48D
:100AB000A6C6DFF40701394B3A2B060120EE06F0FB
:100AC000A851D926A951DA2239C7DEF43AC7DDF494
:100AD00071EF80F0120011C628F612C629F615C66D
:100AE000D9F416C6DAF4DE6ADD6A0FC66CF510C6F4
:100AF0006DF5380E05016E6F060E6F6FFDECDAF0C6
:100B00000601276F2751D8A488EF85F08AEF85F07A
:100B10009AEF85F020EE0FF00F51D9261051DA220E
:100B2000DF50276F2751D8B498EF85F09AEF85F002
:100B30009DEF85F02751B1EF89F020EE0EF00F51B7
:100B4000D9261051DA22DFB2A8EF85F0AAEF85F09E
:100B5000ADEF85F0070EB1EF89F020EE10F00F51E8
:100B6000D9261051DA2210EE10F00F51E126105163
:100B7000E222E6C41BF6E6C41CF6E6C41DF6E6C493
:100B80001EF613511B251F6F14511C21206F000EE0
:100B90001D21216F000E1E21226FDE501F5DDE50D1
:100BA0002059DE502159DE502259D8B0DAEF85F0B5
:100BB000DCEF85F0EAEF85F020EE10F00F51D9263A
:100BC0001051DA22DEC417F6DDC418F6171D136FB4
:100BD000181D146F13511411D8A4F1EF85F0F3EF21
:100BE00085F0F5EF85F0A8EF89F020EE10F00F51B9
:100BF000D9261051DA22FF0EDE14176F010EDE1413
:100C0000186F000EDE14196F000EDE141A6F1751E4
:100C1000181119111A11D8A410EF86F012EF86F0EE
:100C2000ECEF88F020EE10F00F51D9261051DA22A7
:100C3000DEC417F6DEC418F6DEC419F6DEC41AF6F2
:100C40000A0E28EF86F0D8901A3319331833173369
:100C5000E82E23EF86F020EE0AF03851D9263951DC
:100C6000DA22DEC41BF6DDC41CF6FF0E1B251D6F49
:100C7000FF0E1C211E6F17511D152A6F18511E15CE
:100C80002B6F2A512B11D8A448EF86F04AEF86F03B
:100C900013EF87F020EE10F00F51D9261051DA2211
:100CA000DE50DE10DE10DE10D8A459EF86F05BEFC8
:100CB00086F08DEF86F020EE06F00F51D926105108
:100CC000DA22DEC42EF6DEC42FF6DEC430F6DEC431
:100CD00031F62E512F1130113111D8A472EF86F058
:100CE00074EF86F0A9EF86F00FC6EFF510C6F0F5A9
:100CF000000E0501F16F000EF26F000EF36F000E93
:100D0000F46F58EC95F0EFC52EF6F0C52FF6F1C54F
:100D100030F6F2C531F6A9EF86F00FC6EFF510C632
:100D2000F0F520EE14F00F51D9261051DA22DEC46E
:100D3000F1F5DEC4F2F5DEC4F3F5DEC4F4F558ECEB
:100D400095F0EFC52EF6F0C52FF6F1C530F6F2C5D9
:100D500031F606012E512F1130113111D8A4B3EF05
:100D600086F0B5EF86F0B7EF86F0A8EF89F02E0594
:100D70002F1130113111D8A4C0EF86F0C2EF86F0E8
:100D8000CDEF86F020EE0FF00F51D9261051DA2268
:100D9000020EDF6E020EB1EF89F02E290AE12F2933
:100DA00008E1302906E13129D8A4D9EF86F0DBEF3C
:100DB00086F0E6EF86F020EE0FF00F51D9261051A5
:100DC000DA22010EDF6E010EB1EF89F020EE14F091
:100DD0000F51D9261051DA222EC6DEF42FC6DEF4CA
:100DE00030C6DEF431C6DEF420EE06F00F51D9260F
:100DF0001051DA22DE50DE10DE10DE10D8A403EF30
:100E000087F005EF87F013EF87F020EE06F00F5123
:100E1000D9261051DA222EC6DEF42FC6DEF430C6F3
:100E2000DEF431C6DEF420EE0EF00F51D92610515B
:100E3000DA22DFAE1EEF87F020EF87F062EF87F057
:100E4000220E0F250501A66F000E060110210501D7
:100E5000A76F060120EE18F00F51D9261051DA22A3
:100E6000DEC4A8F5DEC4A9F5DEC4AAF5DEC4ABF580
:100E70000501AD6B010EAC6F060120EE01F038519B
:100E8000D9263951DA22DF5083ECE9F00009D8B4D1
:100E90004CEF87F04EEF87F059EF87F0060120EE18
:100EA0000FF00F51D9261051DA22010EDF6EE3EF59
:100EB00086F0060120EE0EF00F51D9261051DA22ED
:100EC0007F0EDF1638C613F539C614F520EE14F080
:100ED0000F51D9261051DA22DEC415F5DEC416F5FD
:100EE000DEC417F5DEC418F5A5ECE1F013C534F641
:100EF00014C535F615C536F616C537F60601345154
:100F0000351136113711D8A488EF87F08AEF87F0B2
:100F100094EF87F020EE0FF00F51D9261051DA220E
:100F2000020EDF6ECAEF86F02A5134272B5135238B
:100F3000000E3623000E372313C617F614C618F614
:100F4000090E196FD89018331733192FA2EF87F0B5
:100F500017C62CF618C62DF62C512D11D8B4B3EFA8
:100F600087F0B5EF87F079EF88F02C512A25176FBD
:100F70002D512B21186F20EE0AF03851D926395106
:100F8000DA221751DE5C1851DE58D8B0CAEF87F06C
:100F9000CCEF87F0DCEF87F020EE0AF03851D9264D
:100FA0003951DA22DEC417F6DDC418F62A51175D6E
:100FB0002C6F2B5118592D6F28C6A6F529C6A7F5F9
:100FC00034C6A8F535C6A9F536C6AAF537C6ABF5B9
:100FD0002CC6ACF52DC6ADF520EE01F03851D92662
:100FE0003951DA22DF5083ECE9F00009D8B4FBEF85
:100FF00087F0FDEF87F008EF88F0060120EE0FF094
:101000000F51D9261051DA22010EDF6EE3EF86F080
:1010100006012C51176F2D51186F196B1A6B20EEAA
:1010200018F00F51D9261051DA22DEC41BF6DEC4A7
:101030001CF6DEC41DF6DEC41EF634511B5D1F6FA8
:1010400035511C59206F36511D59216F37511E598A
:10105000226F17511F5D18512059195121591A51EA
:101060002259D8B036EF88F038EF88F068EF88F072
:10107000220E0F25076E000E1021086E20EE18F0CC
:101080000F51D9261051DA22DEC417F6DDC418F646
:101090003451175F3551185B090ED8901737183740
:1010A000E82E4DEF88F017512825096E1851292197
:1010B0000A6E020E0C6E000E0B6E76ECF1F006015D
:1010C00020EE0EF00F51D9261051DA227F0EDF16D6
:1010D0002CC617F62DC618F6090ED89017371837F4
:1010E000E82E6DEF88F017C632F618C633F642EFD9
:1010F00089F020EE18F00F51D9261051DA22345120
:10110000DE180FE13551DE180CE13651DE1809E129
:101110003751DE18D8B48FEF88F091EF88F0DDEF0B
:1011200088F020EE0AF00F51D9261051DA2210EE85
:1011300010F00F51E1261051E222DE50E65CDE5045
:10114000E658DE50E658DE50E658D8B0AAEF88F0F0
:10115000ACEF88F0DDEF88F0220E0F250501A86FB7
:10116000000E060110210501A96F34C6AAF535C687
:10117000ABF536C6ACF537C6ADF5AF6B010EAE6F4D
:10118000060120EE01F03851D9263951DA22DF501C
:10119000CEECE9F00009D8B4D0EF88F0D2EF88F0B7
:1011A000DDEF88F0060120EE0FF00F51D926105127
:1011B000DA22010EDF6EE3EF86F0060120EE18F072
:1011C0000F51D9261051DA2234C6DEF435C6DEF4CA
:1011D00036C6DEF437C6DEF420EE10F00F51D92605
:1011E0001051DA22DEC417F6DDC418F6FF0E17150B
:1011F000196F010E18151A6F19510008326F1A5124
:10120000D8A0E82A0208336F3251135D33511459C4
:10121000D8B00DEF89F00FEF89F013EF89F013C606
:1012200032F614C633F620EE10F00F51D9261051C5
:10123000DA22DEC417F6DDC418F6FF0E1715196F93
:10124000010E18151A6F19510F251B6F1A51102115
:101250001C6F220E1B25076E000E1C21086E28C66F
:1012600009F529C60AF532C60BF533C60CF576EC3E
:10127000F1F0060120EE0EF00F51D9261051DA22BE
:10128000000EDB8E3251135F3351145B15C6D9F457
:1012900016C6DAF43251DE263351DD2232512827C8
:1012A0003351292320EE10F00F51D9261051DA22A4
:1012B0003251DE263351DE22000EDE22DE2220EE07
:1012C00010F00F51D9261051DA2210EE0AF00F510A
:1012D000E1261051E222DE50E65CDE50E658DE5098
:1012E000E658DE50E658D8A078EF89F07AEF89F01A
:1012F0008AEF89F020EE0AF00F51D9261051DA2238
:10130000DEC423F6DEC424F6DEC425F6DEC426F6EB
:1013100098EF89F020EE10F00F51D9261051DA2203
:10132000DEC423F6DEC424F6DEC425F6DEC426F6CB
:1013300020EE0AF00F51D9261051DA2223C6DEF42E
:1013400024C6DEF425C6DEF426C6DEF4EAEF85F018
:1013500020EE0EF00F51D9261051DA22000EDB8C50
:10136000000E12000FC66CF510C66DF5320E0501A9
:101370006E6F060E6F6FFDECDAF006012D6F2D51CA
:10138000D8A4C5EF89F0C7EF89F0CFEF89F020EE40
:101390000FF00F51D9261051DA22DF502D6F2D5149
:1013A000D8B4D5EF89F0D7EF89F0DAEF89F02D5175
:1013B000BBEF8DF020EE0AF00F51D9261051DA2242
:1013C0001151DE5C1251DE581351DE581451DE58B3
:1013D000D8B0EDEF89F0EFEF89F00AEF8AF020EE58
:1013E0000EF00F51D9261051DA22DFB2FAEF89F050
:1013F000FCEF89F00AEF8AF020EE0AF00F51D926AF
:101400001051DA22DEC411F6DEC412F6DEC413F681
:10141000DEC414F620EE10F00F51D9261051DA2256
:10142000DEC425F6DEC426F6DEC427F6DEC428F6C2
:10143000000E296F000E2A6F000E2B6F000E2C6F0E
:1014400020EE10F00F51D9261051DA2229C6DEF411
:101450002AC6DEF42BC6DEF42CC6DEF411511211BE
:1014600013111411D8B437EF8AF039EF8AF0BEEFB8
:101470008CF020EE0AF03251D9263351DA22DEC444
:1014800015F6DDC416F61551176F1651186F196B46
:101490001A6B090ED8901737183719371A37E82EF4
:1014A0004AEF8AF017C62EF618C62FF619C630F680
:1014B0001AC631F62551261127112811D8B463EF29
:1014C0008AF065EF8AF002EF8BF0FF0E1125076EB0
:1014D000FF0E1221086EFF0E1321096EFF0E14215C
:1014E0000A6E2EC60BF52FC60CF530C60DF531C6AB
:1014F0000EF513ECE7F007C515F608C516F609C595
:1015000017F60AC518F6FF0E06012525076EFF0E11
:101510002621086EFF0E2721096EFF0E28210A6E74
:101520002EC60BF52FC60CF530C60DF531C60EF5DF
:1015300013ECE7F007500601155D085016590950E5
:1015400017590A501859D8A0A8EF8AF0AAEF8AF0C4
:1015500002EF8BF0FF0E2E25156FFF0E2F21166F59
:10156000FF0E3021176FFF0E3121186F151D196FF7
:10157000161D1A6F171D1B6F181D1C6FFF0E2525DA
:101580001D6FFF0E26211E6FFF0E27211F6FFF0EFE
:101590002821206F19511D15216F1A511E15226F18
:1015A0001B511F15236F1C512015246F20EE10F0C6
:1015B0000F51D9261051DA2221C6DEF422C6DEF4FC
:1015C00023C6DEF424C6DEF420EE10F00F51D92637
:1015D0001051DA22DE50115FDE50125BDE50135BD9
:1015E000DD50145B20EE14F00F51D9261051DA2291
:1015F000DEC434F6DEC435F6DEC436F6DEC437F6B5
:101600007EEF8BF020EE06F00F51D9261051DA2232
:10161000DEC434F6DEC435F6DEC436F6DEC437F694
:101620003451351136113711D8A419EF8BF01BEF57
:101630008BF070EF8BF00FC6EFF510C6F0F5000ED3
:101640000501F16F000EF26F000EF36F000EF46FE4
:1016500058EC95F0EFC534F6F0C535F6F1C536F621
:10166000F2C537F606013405351136113711D8A405
:101670003CEF8BF03EEF8BF049EF8BF020EE0FF05C
:101680000F51D9261051DA22020EDF6E020EBBEF87
:101690008DF034290AE1352908E1362906E1372998
:1016A000D8A455EF8BF057EF8BF062EF8BF020EE64
:1016B0000FF00F51D9261051DA22010EDF6E010E04
:1016C000BBEF8DF020EE06F00F51D9261051DA2233
:1016D00034C6DEF435C6DEF436C6DEF437C6DEF4D4
:1016E00020EE14F00F51D9261051DA2234C6DEF460
:1016F00035C6DEF436C6DEF437C6DEF434513511B5
:1017000036113711D8B487EF8BF089EF8BF0BEEF2D
:101710008CF043EF8CF02E51115F2F51125B305142
:10172000135B3151145B20EE10F00F51D92610518C
:10173000DA222E51DE262F51DE223051DE223151A7
:10174000DE2220EE0EF00F51D9261051DA22DFA250
:10175000ACEF8BF0AEEF8BF0DAEF8BF00FC6EFF55E
:1017600010C6F0F534C6F1F535C6F2F536C6F3F518
:1017700037C6F4F558EC95F0EFC534F6F0C535F6FC
:10178000F1C536F6F2C537F606013451351136117A
:101790003711D8A4CEEF8BF0D0EF8BF0F0EF8BF0B9
:1017A000000E116F000E126F000E136F000E146FFB
:1017B00052EF8CF00FC6CEF510C6CFF534C6D0F57B
:1017C00035C6D1F536C6D2F537C6D3F52FECA6F01F
:1017D000CEC534F6CFC535F6D0C536F6D1C537F609
:1017E000060134290AE1352908E1362906E13729BD
:1017F000D8A4FDEF8BF0FFEF8BF009EF8CF020EE1B
:101800000FF00F51D9261051DA22010EDF6E5FEF73
:101810008BF037513611351109E1020E345DD8A035
:1018200014EF8CF016EF8CF02BEF8CF020EE14F010
:101830003251D9263351DA22DE50345DDE5035592B
:10184000DE503659DE503759D8A029EF8CF02BEFF7
:101850008CF035EF8CF020EE0FF00F51D92610519F
:10186000DA22020EDF6E46EF8BF020EE14F00F51FD
:10187000D9261051DA2234C6DEF435C6DEF436C677
:10188000DEF437C6DEF411512E5D12512F5913517B
:10189000305914513159D8A050EF8CF052EF8CF0E0
:1018A0008BEF8BF020EE10F00F51D9261051DA2279
:1018B0001151DE261251DE221351DE221451DE2296
:1018C000FF0E1115156F010E1215166F000E131570
:1018D000176F000E1415186F1551161117111811E6
:1018E000D8B475EF8CF077EF8CF0BEEF8CF032C689
:1018F00013F533C614F534C615F535C616F536C6D8
:1019000017F537C618F5A5ECE1F013C529F614C58F
:101910002AF615C52BF616C52CF6060129512A11F3
:101920002B112C11D8A497EF8CF099EF8CF0A3EF2A
:101930008CF020EE0FF00F51D9261051DA22020E52
:10194000DF6E46EF8BF011C615F612C616F613C6FB
:1019500017F614C618F60A0EB3EF8CF0D8901833A9
:10196000173316331533E82EAEEF8CF015512927B7
:1019700016512A2317512B2318512C2320EE10F037
:101980000F51D9261051DA2210EE0AF00F51E1263C
:101990001051E222DE50E65CDE50E658DE50E6589A
:1019A000DE50E658D8B0D7EF8CF0D9EF8CF0F5EFD9
:1019B0008CF020EE10F00F51D9261051DA2210EEE3
:1019C0000AF00F51E1261051E222DEC4E6F4DEC433
:1019D000E6F4DEC4E6F4DEC4E6F420EE0EF00F51C9
:1019E000D9261051DA22000EDB8C20EE10F00F51B8
:1019F000D9261051DA22FF0EDE14156F010EDE1407
:101A0000166F000EDE14176F000EDE14186F1551DE
:101A1000161117111811D8B410EF8DF012EF8DF0C8
:101A2000D7EF89F020EE18F00F51D9261051DA22A5
:101A30002951DE180FE12A51DE180CE12B51DE1876
:101A400009E12C51DE18D8B428EF8DF02AEF8DF083
:101A5000D7EF89F020EE0EF00F51D9261051DA227F
:101A6000DFAE35EF8DF037EF8DF079EF8DF0220E90
:101A70000F250501A66F000E060110210501A76FB5
:101A8000060120EE18F00F51D9261051DA22DEC4DB
:101A9000A8F5DEC4A9F5DEC4AAF5DEC4ABF50501E0
:101AA000AD6B010EAC6F060120EE01F03251D9266C
:101AB0003351DA22DF5083ECE9F00009D8B463EF48
:101AC0008DF065EF8DF070EF8DF0060120EE0FF0D8
:101AD0000F51D9261051DA22010EDF6E5FEF8BF025
:101AE000060120EE0EF00F51D9261051DA227F0E9A
:101AF000DF16220E0F250501A86F000E060110212A
:101B00000501A96F29C6AAF52AC6ABF52BC6ACF507
:101B10002CC6ADF5AF6B010EAE6F060120EE01F0E5
:101B20003251D9263351DA22DF50CEECE9F00009E8
:101B3000D8B49DEF8DF09FEF8DF0AAEF8DF00601E8
:101B400020EE0FF00F51D9261051DA22010EDF6E70
:101B50005FEF8BF0060120EE18F00F51D9261051DF
:101B6000DA2229C6DEF42AC6DEF42BC6DEF42CC641
:101B7000DEF4D7EF89F01200EAC509F6EBC50AF6E4
:101B8000EEC5D9F4EFC5DAF4DE6ADD6AE8C56CF5B6
:101B9000E9C56DF5150E05016E6F060E6F6FFDEC54
:101BA000DAF00601046F0451D8A4D9EF8DF0DBEF11
:101BB0008DF0EDEF8DF0050120EE0FF0E851D92604
:101BC000E951DA22DF500601046F0451D8B4EBEF7B
:101BD0008DF0EDEF8DF0F0EF8DF0045193EF91F07B
:101BE000050120EE0EF0E851D926E951DA22DFB0E6
:101BF000FCEF8DF0FEEF8DF001EF8EF0070E93EF0E
:101C000091F020EE10F0E851D926E951DA22DEC435
:101C1000F0F5DEC4F1F5DEC4F2F5DEC4F3F520EE36
:101C20000AF0E851D926E951DA22DEC4F4F5DEC41F
:101C3000F5F5DEC4F6F5DEC4F7F5F051F45D060106
:101C4000006F0501F151F5590601016F0501F251CF
:101C5000F6590601026F0501F351F7590601036FAA
:101C60000501EC51F06FED51F16FF26BF36BF05138
:101C70000601005D0501F151060101590501F2510E
:101C8000060102590501F35106010359D8B04BEF83
:101C90008EF04DEF8EF051EF8EF000C6ECF501C6E0
:101CA000EDF50501EC51ED11D8A459EF8EF05BEF85
:101CB0008EF05DEF8EF092EF91F020EE10F0E85193
:101CC000D926E951DA22FF0EDE14F06F010EDE1480
:101CD000F16F000EDE14F26F000EDE14F36FF051A0
:101CE000F111F211F311D8A478EF8EF07AEF8EF0A3
:101CF00019EF91F020EE10F0E851D926E951DA22DF
:101D0000DEC4F0F5DEC4F1F5DEC4F2F5DEC4F3F5B1
:101D10000A0E90EF8EF0D890F333F233F133F033B4
:101D2000E82E8BEF8EF0060120EE0AF01551D92631
:101D30001651DA22DEC4F4F5DDC4F5F5FF0E050117
:101D4000F425F66FFF0EF521F76FF051F615060139
:101D50000B6F0501F151F71506010C6F0B510C11BA
:101D6000D8A4B5EF8EF0B7EF8EF038EF8FF0050105
:101D700020EE10F0E851D926E951DA22DE50DE10CB
:101D8000DE10DE10D8A4C7EF8EF0C9EF8EF0D9EFC9
:101D90008EF020EE06F0E851D926E951DA22DEC4B1
:101DA00005F6DEC406F6DEC407F6DEC408F6F5EF77
:101DB0008EF0E8C5CEF5E9C5CFF520EE14F0E85178
:101DC000D926E951DA22DEC4D0F5DEC4D1F5DEC46D
:101DD000D2F5DEC4D3F52FECA6F0CEC505F6CFC5FF
:101DE00006F6D0C507F6D1C508F606010851071159
:101DF000061107E1020E055DD8B001EF8FF003EF89
:101E00008FF00FEF8FF0050120EE0FF0E851D9268B
:101E1000E951DA22020EDF6E020E93EF91F00529EE
:101E20000AE1062908E1072906E10829D8A41BEFE1
:101E30008FF01DEF8FF029EF8FF0050120EE0FF0EE
:101E4000E851D926E951DA22010EDF6E010E93EF37
:101E500091F0050120EE14F0E851D926E951DA227B
:101E600005C6DEF406C6DEF407C6DEF408C6DEF4F8
:101E700015C613F516C614F5050120EE14F0E85149
:101E8000D926E951DA22DEC415F5DEC416F5DEC422
:101E900017F5DEC418F5A5ECE1F013C511F614C56D
:101EA00012F615C513F616C514F6060111511211D6
:101EB00013111411D8A45FEF8FF061EF8FF06CEF66
:101EC0008FF0050120EE0FF0E851D926E951DA2212
:101ED000020EDF6E0CEF8FF00B5111270C51122305
:101EE000000E1323000E1423ECC5F0F5EDC5F1F53B
:101EF000090E0501F26FD890F133F033F22F7BEF2A
:101F00008FF0F0C50DF6F1C50EF606010D510E115C
:101F1000D8B48DEF8FF08FEF8FF077EF90F00D51F9
:101F20000B250501F06F06010E510C210501F16F23
:101F3000060120EE0AF01551D9261651DA220501C4
:101F4000F051DE5CF151DE58D8B0A9EF8FF0ABEF65
:101F50008FF0C0EF8FF0060120EE0AF01551D92660
:101F60001651DA22DEC4F0F5DDC4F1F50B5105019E
:101F7000F05D06010D6F0C510501F15906010E6F60
:101F800009C6A8F50AC6A9F511C6AAF512C6ABF589
:101F900013C6ACF514C6ADF50DC6AEF50EC6AFF55D
:101FA000060120EE01F01551D9261651DA22DF5034
:101FB000CEECE9F00009D8B4E0EF8FF0E2EF8FF05B
:101FC000EDEF8FF0050120EE0FF0E851D926E95131
:101FD000DA22010EDF6E26EF8FF0050120EE0EF003
:101FE000E851D926E951DA22DFAEF9EF8FF0FBEFA5
:101FF0008FF065EF90F006010D510501F06F0601BD
:102000000E510501F16FF26BF36B20EE18F0E85101
:10201000D926E951DA22DEC4F4F5DEC4F5F5DEC4D2
:10202000F6F5DEC4F7F5060111510501F45DF86F10
:10203000060112510501F559F96F06011351050109
:10204000F659FA6F060114510501F759FB6FF0516B
:10205000F85DF151F959F251FA59F351FB59D8B0E1
:1020600034EF90F036EF90F065EF90F020EE18F03E
:10207000E851D926E951DA22DEC4F0F5DDC4F1F5E4
:10208000060111510501F05F060112510501F15BD6
:10209000090ED890F037F137E82E49EF90F0F05163
:1020A00006010925076E0501F15106010A21086E96
:1020B000220E0501E825096E000EE9210A6E020EC6
:1020C0000C6E000E0B6E76ECF1F00DC6F0F50EC640
:1020D000F1F5090ED8900501F037F137E82E6AEFD7
:1020E00090F0F0C50FF6F1C510F66CEF91F0050118
:1020F00020EE18F0E851D926E951DA2206011151F3
:10210000DE180FE11251DE180CE11351DE1809E15F
:102110001451DE18D8B48FEF90F091EF90F00AEFE1
:1021200091F0050120EE0EF0E851D926E951DA22AE
:10213000DFAE9DEF90F09FEF90F0DCEF90F0220E7D
:10214000E825A66F000EE921A76F20EE18F0E851F0
:10215000D926E951DA22DEC4A8F5DEC4A9F5DEC429
:10216000AAF5DEC4ABF5AD6B010EAC6F060120EE37
:1021700001F01551D9261651DA22DF5083ECE9F02F
:102180000009D8B4C6EF90F0C8EF90F0D3EF90F00C
:10219000050120EE0FF0E851D926E951DA22010EAF
:1021A000DF6E26EF8FF0050120EE0EF0E851D92604
:1021B000E951DA227F0EDF16220EE825A86F000E05
:1021C000E921A96F11C6AAF512C6ABF513C6ACF585
:1021D00014C6ADF5AF6B010EAE6F060120EE01F037
:1021E0001551D9261651DA22DF50CEECE9F000095C
:1021F000D8B4FDEF90F0FFEF90F00AEF91F00501F9
:1022000020EE0FF0E851D926E951DA22010EDF6EF7
:1022100026EF8FF0050120EE18F0E851D926E9519C
:10222000DA2211C6DEF412C6DEF413C6DEF414C6DA
:10223000DEF420EE10F0E851D926E951DA22DEC4AE
:10224000F0F5DDC4F1F5FF0EF015F26F010EF1159A
:10225000F36FF251000806010F6F0501F351D8A08A
:10226000E82A02080601106F0F510501EC5D060116
:1022700010510501ED59D8B040EF91F042EF91F0C7
:1022800046EF91F0ECC50FF6EDC510F609C607F55F
:102290000AC608F520EE10F0E851D926E951DA22F5
:1022A000DEC4F0F5DDC4F1F5FF0EF015F26F010E9E
:1022B000F115F36FF251E825F46FF351E921F56F51
:1022C000220EF425096E000EF5210A6E0FC60BF5DD
:1022D00010C60CF576ECF1F006010F510501EC5F2C
:1022E000060110510501ED5BEEC5D9F4EFC5DAF436
:1022F00006010F51DE261051DD220F510927105122
:102300000A23050120EE10F0E851D926E951DA221E
:1023100006010F51DE261051DE22000EDE22DE22E3
:1023200051EF8EF0000E12000601AA51AB11D8A495
:102330009CEF91F09EEF91F0A1EF91F0090E57EF15
:1023400095F03F0EAE17AC0E0501FA6F060EFB6F4F
:10235000CF0EFC6F060EFD6FAEC6FEF500EC80F0F2
:102360000601D16FD151D8A4B8EF91F0BAEF91F036
:1023700047EF95F0CFC6D2F6D0C6D3F6D20E2F6F68
:10238000060E306FACC631F6ADC632F64DECBBF082
:102390000601D16FD151D8A4D0EF91F0D2EF91F0D6
:1023A000DBEF91F0F9AFD7EF91F0D9EF91F0DBEFE0
:1023B00091F0060ED16FAEC6AFF61C0EAF17D8B4B3
:1023C000E4EF91F0E6EF91F002EF93F0D151D8B441
:1023D000ECEF91F0EEEF91F002EF92F0040ED119D4
:1023E000D8A4F5EF91F0F7EF91F0FFEF91F0D20E56
:1023F000326F060E336F93ECDFF00601D16FAE87BC
:102400001AEF92F0D6C6AFF6110EAF17D8B40BEF95
:1024100092F00DEF92F011EF92F0070ED16F1AEFDC
:1024200092F0AEA516EF92F018EF92F01AEF92F03C
:10243000080ED16FD151D8A420EF92F022EF92F084
:1024400025EF93F0AEA727EF92F029EF92F025EF5A
:1024500093F008ECF6F007C5BBF608C5BCF609C555
:10246000BDF60AC5BEF60E0E0601EC25076E000E7F
:10247000ED21086EBBC609F5BCC60AF5BDC60BF555
:10248000BEC60CF557ECEEF0160E0601EC25076EF5
:10249000000EED21086EBBC609F5BCC60AF5BDC627
:1024A0000BF5BEC60CF557ECEEF0CFC60EF5D0C658
:1024B0000FF5ECC610F5EDC611F5F8ECEBF00EC516
:1024C000BFF60FC5C0F610C5C1F611C5C2F60601AC
:1024D00020EE0BF0EC51D926ED51DA22200EDF6E02
:1024E000CFC60BF5D0C60CF5ECC60DF5EDC60EF556
:1024F000000E0F6E000E106E000E116E000E126EAA
:1025000039ECF2F01C0E0601EC25076E000EED21F1
:10251000086E000E096E000E0A6E000E0B6E000EA5
:102520000C6E57ECEEF0060120EE04F0CF51D926E8
:10253000D051DA22010EDF6EBF51C011C111C2119C
:10254000D8B4A5EF92F0A7EF92F025EF93F020EE2C
:102550002CF0CF51D926D051DA22DEC4C3F6DEC426
:10256000C4F6DEC4C5F6DEC4C6F6D20E0501EF6FB2
:10257000060EF06FBFC6F1F5C0C6F2F5C1C6F3F5A1
:10258000C2C6F4F5000EF56F000EF66F000EF76F81
:10259000000EF86F03ECB8F00601D16FD151D8A44A
:1025A000D4EF92F0D6EF92F025EF93F0CFC6C3F5BB
:1025B000D0C6C4F5C3C6C5F5C4C6C6F5C5C6C7F5FD
:1025C000C6C6C8F5D5ECE2F00601D16FFF0EBF25F7
:1025D000AF6FFF0EC021B06FFF0EC121B16FFF0EB4
:1025E000C221B26F20EE0CF0CF51D926D051DA22A1
:1025F000AFC6DEF4B0C6DEF4B1C6DEF4B2C6DEF4B9
:1026000025EF93F0D151D8A408EF93F00AEF93F09F
:1026100025EF93F0D6A90FEF93F011EF93F015EF9C
:1026200093F0040ED16F25EF93F0AEA31AEF93F061
:102630001CEF93F025EF93F0D6A121EF93F023EF59
:1026400093F025EF93F0070ED16FD151D8A42BEF63
:1026500093F02DEF93F053EF93F0AEA732EF93F09A
:1026600034EF93F035EF93F0AE8D20EE2CF0CF5198
:10267000D926D051DA2210EE1CF0AA51E126AB5136
:10268000E222DEC4E6F4DEC4E6F4DEC4E6F4DEC430
:10269000E6F420EE20F0AA51D926AB51DA22ECC69E
:1026A000DEF4EDC6DDF4D151D8A459EF93F05BEF21
:1026B00093F047EF95F0CFC60EF5D0C60FF5ECC6F8
:1026C00010F5EDC611F5F8ECEBF0060120EE06F082
:1026D000AA51D926AB51DA220EC5DEF40FC5DEF4BD
:1026E00010C5DEF411C5DEF41C0EEC25076E000EDD
:1026F000ED21086E5AECE4F0060120EE0AF0AA5132
:10270000D926AB51DA2207C5DEF408C5DEF409C5C7
:10271000DEF40AC5DEF4AAC6D9F4ABC6DAF4CFC635
:10272000DEF4D0C6DDF420EE06F0CF51D926D0512C
:10273000DA2210EE02F0AA51E126AB51E222DEC409
:10274000E6F4DDC4E5F420EE0EF0AA51D926AB5133
:10275000DA22AEC6DFF420EE0FF0AA51D926AB5133
:10276000DA22DF6A20EE18F0AA51D926AB51DA221C
:10277000DE6ADE6ADE6ADD6A20EE10F0AA51D92632
:10278000AB51DA22DE6ADE6ADE6ADD6A220EAA2533
:10279000076E000EAB21086E0A6A000E096E020E6B
:1027A0000C6E000E0B6EC5ECF3F00601AEABDBEF6A
:1027B00093F0DDEF93F047EF95F020EE0AF0AA5189
:1027C000D926AB51DA22DE50DE10DE10DE10D8B48E
:1027D000ECEF93F0EEEF93F047EF95F020EE0AF078
:1027E000AA51D926AB51DA2210EE10F0AA51E126F7
:1027F000AB51E222DEC4E6F4DEC4E6F4DEC4E6F465
:10280000DEC4E6F420EE0AF0CF51D926D051DA2208
:10281000DEC4AFF6DDC4B0F6AF51B16FB051B26FE8
:10282000B36BB46B090ED890B137B237B337B43746
:10283000E82E13EF94F0B1C6B7F6B2C6B8F6B3C639
:10284000B9F6B4C6BAF620EE06F0AA51D926AB51B5
:10285000DA22DEC4CBF6DEC4CCF6DEC4CDF6DEC4AE
:10286000CEF620EE0AF0AA51D926AB51DA22DEC408
:10287000C7F6DEC4C8F6DEC4C9F6DEC4CAF67FEF0A
:1028800094F0AAC6CEF5ABC6CFF5CBC6D0F5CCC674
:10289000D1F5CDC6D2F5CEC6D3F52FECA6F0CEC578
:1028A000CBF6CFC5CCF6D0C5CDF6D1C5CEF6060158
:1028B000CE51CD11CC1107E1020ECB5DD8B063EF44
:1028C00094F065EF94F067EF94F0020ED16FCB298E
:1028D0000AE1CC2908E1CD2906E1CE29D8A473EF7D
:1028E00094F075EF94F077EF94F0010ED16FB7513B
:1028F000C75FB851C85BB951C95BBA51CA5BD15106
:10290000D8A485EF94F087EF94F096EF94F0C75138
:10291000B75DC851B859C951B959CA51BA59D8A0A7
:1029200094EF94F096EF94F041EF94F020EE14F0D1
:10293000AA51D926AB51DA22CBC6DEF4CCC6DEF4DE
:10294000CDC6DEF4CEC6DEF4D151D8A4AAEF94F001
:10295000ACEF94F047EF95F0FF0EC715AF6F010E87
:10296000C815B06F000EC915B16F000ECA15B26F51
:10297000AF51B011B111B211D8B4C1EF94F0C3EF9F
:1029800094F047EF95F0CFC613F5D0C614F5CBC63B
:1029900015F5CCC616F5CDC617F5CEC618F5A5ECBF
:1029A000E1F013C5C3F614C5C4F615C5C5F616C5C2
:1029B000C6F60601C351C411C511C611D8A4E3EF70
:1029C00094F0E5EF94F0E9EF94F0020ED16F47EF49
:1029D00095F0C7C6AFF6C8C6B0F6C9C6B1F6CAC646
:1029E000B2F60A0EF9EF94F0D890B233B133B033A7
:1029F000AF33E82EF4EF94F0C351AF25B36FC45159
:102A0000B021B46FC551B121B56FC651B221B66FB7
:102A100020EE18F0AA51D926AB51DA22B3C6DEF463
:102A2000B4C6DEF4B5C6DEF4B6C6DEF4220EAA25C0
:102A30000501A86F000E0601AB210501A96F060173
:102A400020EE18F0AA51D926AB51DA22DEC4AAF53D
:102A5000DEC4ABF5DEC4ACF5DEC4ADF50501AF6B8D
:102A6000010EAE6F060120EE01F0CF51D926D051F4
:102A7000DA22DF50CEECE9F00009D8B442EF95F04D
:102A800044EF95F047EF95F0010E0601D16F060176
:102A9000D151D8B44EEF95F050EF95F056EF95F038
:102AA000AAC6D9F4ABC6DAF4DE6ADD6AD1511200E7
:102AB000EFC5D9F4F0C5DAF4DEC409F6DDC40AF6D0
:102AC0000501F151F211F311F411D8A46AEF95F058
:102AD0006CEF95F0A5EF95F0060120EE0CF0095192
:102AE000D9260A51DA22DEC401F6DEC402F6DEC4BB
:102AF00003F6DEC404F60151021103110411D8B427
:102B000084EF95F086EF95F09BEF95F020EE14F0B2
:102B10000951D9260A51DA22DE50015DDE500259F0
:102B2000DE500359DE500459D8A099EF95F09BEF81
:102B300095F00BEF96F0010E016F000E026F000E84
:102B4000036F000E046F0BEF96F0EFC5CEF5F0C5E6
:102B5000CFF5F1C5D0F5F2C5D1F5F3C5D2F5F4C581
:102B6000D3F52FECA6F0CEC50BF6CFC50CF6D0C52D
:102B70000DF6D1C50EF606010E510D110C1107E12F
:102B8000020E0B5DD8B0C7EF95F0C9EF95F0D4EF0A
:102B900095F0010E0501EF6F000EF06F000EF16F62
:102BA000000EF26F40EF98F00B290AE10C2908E1C2
:102BB0000D2906E10E29D8A4E0EF95F0E2EF95F09B
:102BC000ECEF95F00BC6EFF50CC6F0F50DC6F1F580
:102BD0000EC6F2F540EF98F020EE14F00951D92618
:102BE0000A51DA22DE500B5DDE500C59DE500D59D1
:102BF000DE500E59D8B0FFEF95F001EF96F003EFDD
:102C000096F0E2EF95F0F1C501F6F2C502F6F3C5D4
:102C100003F6F4C504F620EE10F00951D9260A5146
:102C2000DA22DE50DE10DE10DE10D8A41AEF96F0A5
:102C30001CEF96F027EF96F0000E0501EF6F000EE7
:102C4000F06F000EF16F000EF26F40EF98F0000E83
:102C5000056F000E066F000E076F000E086F05016E
:102C6000F1510601011913E10501F25106010219A2
:102C70000EE10501F3510601031909E10501F451C3
:102C800006010419D8A447EF96F049EF96F0EFEF4C
:102C900096F0010E0125056F000E0221066F000E51
:102CA0000321076F000E0421086F20EE14F0095174
:102CB000D9260A51DA22DE50055DDE500659DE5073
:102CC0000759DE500859D8A068EF96F06AEF96F0E1
:102CD00072EF96F0020E056F000E066F000E076F82
:102CE000000E086FEFC5CEF5F0C5CFF505C6D0F5DF
:102CF00006C6D1F507C6D2F508C6D3F52FECA6F067
:102D0000CEC50BF6CFC50CF6D0C50DF6D1C50EF667
:102D100006010B050C110D110E11D8B492EF96F0AF
:102D200094EF96F0E2EF95F00B290AE10C2908E107
:102D30000D2906E10E29D8A4A0EF96F0A2EF96F097
:102D4000A4EF96F0E2EF95F00B510C110D110E115E
:102D5000D8B4ADEF96F0AFEF96F0EFEF96F020EE2F
:102D60000CF00951D9260A51DA22DEC40BF6DEC472
:102D70000CF6DEC40DF6DEC40EF60E510D110C116C
:102D800009E1020E0B5DD8A0C8EF96F0CAEF96F0ED
:102D9000E7EF96F020EE14F00951D9260A51DA2215
:102DA000DE500B5DDE500C59DE500D59DE500E59D1
:102DB000D8B0DDEF96F0DFEF96F0E7EF96F00BC6B8
:102DC00001F60CC602F60DC603F60EC604F6000E9A
:102DD000056F000E066F000E076F000E086F05519D
:102DE000061107110811D8A4F8EF96F0FAEF96F043
:102DF00087EF97F001C605F602C606F603C607F68A
:102E000004C608F6010E0527000E06230723082333
:102E100020EE14F00951D9260A51DA22DE50055D60
:102E2000DE500659DE500759DE500859D8A01BEF76
:102E300097F01DEF97F034EF97F0020E056F000E3C
:102E4000066F000E076F000E086F04510311021188
:102E500007E1020E015DD8B030EF97F032EF97F046
:102E600034EF97F01CEF96F0EFC5CEF5F0C5CFF537
:102E700005C6D0F506C6D1F507C6D2F508C6D3F506
:102E80002FECA6F0CEC50BF6CFC50CF6D0C50DF6CF
:102E9000D1C50EF606010B510C110D110E11D8A45F
:102EA00054EF97F056EF97F058EF97F087EF97F0C1
:102EB0000B050C110D110E11D8B461EF97F063EFF3
:102EC00097F0E2EF95F00B290AE10C2908E10D29B2
:102ED00006E10E29D8A46FEF97F071EF97F073EF2A
:102EE00097F0E2EF95F0015105190DE10251061935
:102EF0000AE10351071907E104510819D8A483EF27
:102F000097F085EF97F002EF97F01CEF96F009C667
:102F1000CEF50AC6CFF505C6D0F506C6D1F507C66B
:102F2000D2F508C6D3F5FF0E0501D46FFF0ED56F9D
:102F3000FF0ED66FFF0ED76FEDEC9AF00601006F13
:102F40000051D8A4A6EF97F0A8EF97F0CCEF97F038
:102F50000501F151F211F311F411D8B4B2EF97F069
:102F6000B4EF97F0CCEF97F009C6CEF50AC6CFF5CF
:102F7000F1C5D0F5F2C5D1F5F3C5D2F5F4C5D3F559
:102F800005C6D4F506C6D5F507C6D6F508C6D7F5E5
:102F9000EDEC9AF00601006F06010051D8A4D3EFC2
:102FA00097F0D5EF97F022EF98F020EE0CF0095152
:102FB000D9260A51DA2205C6DEF406C6DEF407C6B3
:102FC000DEF408C6DEF420EE10F00951D9260A51CD
:102FD000DA2210EE14F00951E1260A51E222FE0E27
:102FE000E6240501F96FFF0EE620FA6FFF0EE620DA
:102FF000FB6FFF0EE620FC6FDE50F95DDE50FA59E4
:10300000DE50FB59DE50FC59D8A009EF98F00BEFC9
:1030100098F017EF98F0060120EE10F00951D9262C
:103020000A51DA22DE06000EDE5ADE5ADE5A0601A8
:1030300020EE05F00951D9260A51DA22000EDB8074
:1030400038EF98F00005D8B428EF98F02AEF98F000
:1030500034EF98F0010E056F000E066F000E076F3B
:10306000000E086F38EF98F005690669076908696E
:1030700005C6EFF506C6F0F507C6F1F508C6F2F588
:10308000120037C5D9F438C5DAF4DEC4F6F4DDC46D
:10309000F7F4000EF86E0800F550250AD8A453EF97
:1030A00098F055EF98F0D6EF9AF037C5D9F438C5B7
:1030B000DAF4DE2A000EDD22556A000E546E54C585
:1030C00058F5070115691669436A87EF98F0588229
:1030D00037C5D9F438C5DAF4DE2A000EDD2287EFD1
:1030E00098F0010E436E87EF98F037C5D9F438C5D4
:1030F000DAF4DEC4F6F4DDC4F7F4000EF86E08006E
:10310000F550300AD8B467EF98F071EF98F043505B
:10311000D8B48DEF98F08FEF98F075EF98F037C531
:1031200007F538C508F539C509F53AC50AF50BECB8
:10313000E2F007C554F508C555F555BEA4EF98F063
:10314000A2EF98F0A9EF98F05880546C551ED8B0B3
:10315000552A37C5D9F438C5DAF4DEC4F6F4DDC42F
:10316000F7F4000EF86E0800F550630AD8A4BBEF20
:1031700098F0BDEF98F0E0EF98F037C5D9F438C576
:10318000DAF4DE2A000EDD2239C5D9F43AC5DAF4C4
:10319000DFC43BF5020EDE26DFC43CF5000EDD2267
:1031A0003BC5D9F43CC5DAF4DF50446E35C511F5A2
:1031B00036C512F544C513F59BECE3F0ECEF9AF03D
:1031C00037C5D9F438C5DAF4DEC445F5DDC446F5B3
:1031D00045C5F6F446C5F7F4000EF86E0800F5C4D0
:1031E00044F5FEEF98F0454A462A15EF99F0690E2E
:1031F000446E15EF99F0446A15EF99F04450580A5F
:10320000D8B4F7EF98F03C0AD8B4F7EF98F00D0A6D
:10321000D8B4F7EF98F0050AD8B4F3EF98F0140A91
:10322000D8B4F7EF98F0FBEF98F045C5F6F446C533
:10323000F7F4000EF86E0800F550640AD8B423EFD6
:1032400099F025EF99F06CEF99F045C5F6F446C575
:10325000F7F4000EF86E0800F550690AD8A433EFB1
:1032600099F035EF99F095EF99F06CEF99F039C539
:10327000D9F43AC5DAF4DFC43BF5020EDE26DFC42A
:103280003CF5000EDD223BC5D9F43CC5DAF4DEC4C2
:103290003FF5DDC440F5000E40BEFF0E416E426EAC
:1032A00077EF99F039C5D9F43AC5DAF4DFC43BF5C4
:1032B000040EDE26DFC43CF5000EDD223BC5D9F44A
:1032C0003CC5DAF4DEC43FF5DEC440F5DEC441F5AA
:1032D000DEC442F577EF99F04450690AD8B437EF6D
:1032E00099F0050AD8B452EF99F077EF99F0010EF2
:1032F00045243B6E000E46203C6E37C5D9F438C5D8
:10330000DAF43BC5DEF43CC5DDF435C521F536C540
:1033100022F53FC523F540C524F541C525F542C535
:1033200026F549ECC7F0ECEF9AF045C5F6F446C532
:10333000F7F4000EF86E0800F550780AD8B4A3EF41
:1033400099F0A5EF99F0EDEF99F045C5F6F446C573
:10335000F7F4000EF86E0800F550580AD8A4B3EF41
:1033600099F0B5EF99F033EF9AF0EDEF99F039C598
:10337000D9F43AC5DAF4DFC43BF5020EDE26DFC429
:103380003CF5000EDD223BC5D9F43CC5DAF4DEC4C1
:103390003DF5DDC43EF53DC53FF53EC540F5416A0E
:1033A000426AF8EF99F039C5D9F43AC5DAF4DFC4C6
:1033B0003BF5040EDE26DFC43CF5000EDD223BC5E6
:1033C000D9F43CC5DAF4DEC43FF5DEC440F5DEC412
:1033D00041F5DEC442F5F8EF99F04450690AD8B4DB
:1033E000B7EF99F0050AD8B4D3EF99F0F8EF99F058
:1033F000010E45243B6E000E46203C6E37C5D9F4C5
:1034000038C5DAF43BC5DEF43CC5DDF421EF9AF0B3
:1034100035C521F536C522F53FC523F540C524F550
:1034200041C525F542C526F545C5F6F446C5F7F470
:10343000000EF86E0800F5C427F5ABECD3F0ECEF06
:103440009AF045C5F6F446C5F7F4000EF86E08008C
:10345000F550580AD8B408EF9AF0200AD8B408EF0B
:103460009AF033EF9AF0436A37C5D9F438C5DAF4E5
:10347000DEC4F6F4DDC4F7F4000EF86E0800F55073
:10348000730AD8A446EF9AF048EF9AF053EF9AF0F7
:1034900037C5D9F438C5DAF4DE2A000EDD22010E74
:1034A000436EA9EF9AF037C5D9F438C5DAF4DEC413
:1034B000F6F4DDC4F7F4000EF86E0800F5506C0A5F
:1034C000D8A465EF9AF067EF9AF0A9EF9AF037C5A4
:1034D000D9F438C5DAF4DEC43BF5DDC43CF5010EA1
:1034E0003B26000E3C223BC5F6F43CC5F7F4000E2B
:1034F000F86E0800F5506C0AD8A481EF9AF083EFBB
:103500009AF0A9EF9AF037C5D9F438C5DAF4DEC4D9
:103510003BF5DDC43CF5020E3B26000E3C223BC5CC
:10352000F6F43CC5F7F4000EF86E0800F550730A87
:10353000D8A49DEF9AF09FEF9AF0A9EF9AF0030EAE
:1035400037C5D9F438C5DAF4DE26000EDD224FEF98
:103550009AF04350D8B4AFEF9AF0B1EF9AF0CDEFB4
:103560009AF035C511F536C512F539C5D9F43AC505
:10357000DAF4DFC43BF5020EDE26DFC43CF5000EB4
:10358000DD223BC5D9F43CC5DAF4DEC413F5DDC455
:1035900014F5B3ECCFF0ECEF9AF037C5D9F438C599
:1035A000DAF4DE2A000EDD22ECEF9AF037C5D9F40A
:1035B00038C5DAF4DEC4F6F4DDC4F7F4000EF86EB4
:1035C0000800F550086E096A35C50AF536C50BF5D1
:1035D00070ECE2F0CDEF9AF01200020E0501EE6FF2
:1035E000D351D211D11109E1020ED05DD8A0FBEF69
:1035F0009AF0FDEF9AF061EF9DF020EE14F0CE51BD
:10360000D926CF51DA22DE50D05DDE50D159DE50BE
:10361000D259DE50D359D8B010EF9BF012EF9BF087
:1036200061EF9DF04EEF9DF0D0C5ECF5D1C5EDF505
:10363000D890ED31D96FEC31D86FD851EC27D951F2
:10364000ED23CEC5C3F5CFC5C4F520EE20F0CE5195
:10365000D926CF51DA22DEC4D8F5DEC4D9F5DEC4CE
:10366000DAF5DEC4DBF5ECC5DCF5EDC5DDF5090EFC
:10367000DE6FD890DD33DC33DE2F39EF9BF0DC5189
:10368000D825C56FDD51D921C66F000EDA21C76F6D
:10369000000EDB21C86FD5ECE2F00501EE6FEE51B4
:1036A000D8B455EF9BF057EF9BF059EF9BF061EFCB
:1036B0009DF0FF0EEC15D86F010EED15D96FD851A6
:1036C000CE25DA6FD951CF21DB6F300EDA25EA6FC4
:1036D000000EDB21EB6FEC4BED2BD0B172EF9BF0CA
:1036E00074EF9BF079EF9BF0D4C5E6F5E76B93EFB1
:1036F0009BF0D451D86FD96BD83BD93BF00ED9177A
:10370000D8510F0BD913F00ED817EAC5D9F4EBC571
:10371000DAF4DF500F0BDA6FDB6BD851DA11E66F9A
:10372000D951DB11E76FEAC5D9F4EBC5DAF4E6C588
:10373000DFF420EE04F0CE51D926CF51DA22010E6B
:10374000DF6ECEC5C3F5CFC5C4F520EE20F0CE5157
:10375000D926CF51DA22DEC4D8F5DEC4D9F5DEC4CD
:10376000DAF5DEC4DBF5ECC5DCF5EDC5DDF5090EFB
:10377000DE6FD890DD33DC33DE2FB9EF9BF0DC5108
:10378000D825C56FDD51D921C66F000EDA21C76F6C
:10379000000EDB21C86FD5ECE2F00501EE6FEE51B3
:1037A000D8B4D5EF9BF0D7EF9BF0D9EF9BF061EF4A
:1037B0009DF0FF0EEC15D86F010EED15D96FD851A5
:1037C000CE25DA6FD951CF21DB6F300EDA25EA6FC3
:1037D000000EDB21EB6FD0B1F0EF9BF0F2EF9BF02E
:1037E00010EF9CF0D4C5D8F5D5C5D9F5D6C5DAF516
:1037F000D7C5DBF5D9C5D8F5DAC5D9F5DBC5DAF516
:10380000DB6B0F0ED817EAC5D9F4EBC5DAF4DF503D
:10381000F00BD811DC6FDC51E86FE96B26EF9CF000
:10382000D4C5D8F5D5C5D9F5D6C5DAF5D7C5DBF5F4
:10383000050E20EF9CF0D890DB33DA33D933D83340
:10384000E82E1BEF9CF0D851E86FE96BEAC5D9F47C
:10385000EBC5DAF4E8C5DFF420EE04F0CE51D9264A
:10386000CF51DA22010EDF6E61EF9DF0CEC5C3F5B8
:10387000CFC5C4F520EE20F0CE51D926CF51DA22A3
:10388000DEC4D8F5DEC4D9F5DEC4DAF5DEC4DBF576
:10389000D0C5DCF5D1C5DDF5D2C5DEF5D3C5DFF584
:1038A000DDC5DCF5DEC5DDF5DFC5DEF5DF6BD85146
:1038B000DC25C56FD951DD21C66FDA51DE21C76F16
:1038C000DB51DF21C86FD5ECE2F00501EE6FEE5160
:1038D000D8B46DEF9CF06FEF9CF071EF9CF061EF4E
:1038E0009DF0D0C5D8F5D1C5D9F5D890D837D937FE
:1038F000FF0ED815DA6F010ED915DB6FDA51CE2520
:10390000DC6FDB51CF21DD6F300EDC25076E000E42
:10391000DD21086ED4C509F5D5C50AF580ECF4F0B3
:10392000050120EE04F0CE51D926CF51DA22010E46
:10393000DF6E61EF9DF0CEC5C3F5CFC5C4F520EEB7
:1039400020F0CE51D926CF51DA22DEC4D8F5DEC41C
:10395000D9F5DEC4DAF5DEC4DBF5D0C5DCF5D1C5BA
:10396000DDF5D2C5DEF5D3C5DFF5080EBDEF9CF061
:10397000D890DF33DE33DD33DC33E82EB8EF9CF054
:10398000D851DC25C56FD951DD21C66FDA51DE2152
:10399000C76FDB51DF21C86FD5ECE2F00501EE6F98
:1039A000EE51D8B4D6EF9CF0D8EF9CF0DAEF9CF053
:1039B00061EF9DF0D0C5D8F5D1C5D9F5D890D837ED
:1039C000D937D890D837D937FF0ED815DA6F010E0E
:1039D000D915DB6FDA51CE25DC6FDB51CF21DD6FDE
:1039E000300EDC25076E000EDD21086E5AECE4F087
:1039F000000E07140501DE6F000E0814DF6F000EC5
:103A00000914E06FF00E0A14E16FFF0ED415E26F97
:103A1000FF0ED515E36FFF0ED615E46F0F0ED71509
:103A2000E56FDE51E211D46FDF51E311D56FE05144
:103A3000E411D66FE151E511D76FD0C5D8F5D1C5E6
:103A4000D9F5D890D837D937D890D837D937FF0E8D
:103A5000D815DA6F010ED915DB6FDA51CE25DC6F80
:103A6000DB51CF21DD6F300EDC25076E000EDD212E
:103A7000086ED4C509F5D5C50AF5D6C50BF5D7C569
:103A80000CF557ECEEF0050120EE04F0CE51D926EE
:103A9000CF51DA22010EDF6E61EF9DF0CEC5D9F471
:103AA000CFC5DAF4DF50010AD8B414EF9BF0030A53
:103AB000D8B436EF9CF0010AD8B49BEF9CF061EFCC
:103AC0009DF0EE511200296A000E2A6E000E2B6E38
:103AD000000E2C6E000E2D6E13C52EF514C52FF59D
:103AE00018BE7EEF9DF0185007E1250E175CD8B088
:103AF0007CEF9DF07EEF9DF087EF9DF0170418108E
:103B0000D8A485EF9DF087EF9DF08DEF9DF0070124
:103B1000186B160E176F87EF9FF02E502F10D8B42A
:103B200094EF9DF096EF9DF087EF9FF02EC5D9F4AE
:103B30002FC5DAF4DF50D8A4A0EF9DF0A2EF9DF0DE
:103B4000A4EF9DF087EF9FF02EC5D9F42FC5DAF4CE
:103B5000DF50306EB4EF9DF02E4A2F2A2EC5D9F4D7
:103B60002FC5DAF4DF50306E200E3018D8B4BBEF1A
:103B70009DF0BDEF9DF0ACEF9DF030C51AF5F70E4E
:103B80001A26040E1A64C7EF9DF0C9EF9DF0ACEF42
:103B90009DF02D0E3018D8A4D0EF9DF0D2EF9DF0FF
:103BA000DEEF9DF0010E296E2E4A2F2A2EC5D9F484
:103BB0002FC5DAF4DF50306EE9EF9DF02B0E301890
:103BC000D8A4E5EF9DF0E7EF9DF0E9EF9DF0D4EF8D
:103BD0009DF0300E3018D8A4F0EF9DF0F2EF9DF07C
:103BE00089EF9EF02E4A2F2A2EC5D9F42FC5DAF47C
:103BF000DF50306E17501810D8B401EF9EF003EF6D
:103C00009EF00DEF9EF0100E17181810D8A40BEFB1
:103C10009EF00DEF9EF07CEF9EF0780E3018D8B439
:103C200014EF9EF016EF9EF01FEF9EF0580E301826
:103C3000D8A41DEF9EF01FEF9EF07CEF9EF0186A57
:103C4000100E176E2E4A2F2A2EC5D9F42FC5DAF47E
:103C5000DF50306E30C51AF5200E1A129F0E1A264C
:103C60001A0E1A6036EF9EF038EF9EF05CEF9EF071
:103C700030C51AF59F0E1A26190E1A6442EF9EF0EF
:103C800044EF9EF049EF9EF030C521F5226A50EFD7
:103C90009EF030C51AF55F0E1A161A50216E226A70
:103CA00021C51AF5C90E1A26100E1A605AEF9EF099
:103CB0005CEF9EF076EF9EF030C51AF5200E1A12DA
:103CC0009F0E1A26190E1A6468EF9EF06AEF9EF096
:103CD00089EF9EF030C51AF5D00E1A26090E1A6427
:103CE00074EF9EF076EF9EF089EF9EF029842E0609
:103CF000D8A02F0687EF9FF0298417501810D8A45A
:103D000084EF9EF086EF9EF089EF9EF0186A080E11
:103D1000176E17501810D8A490EF9EF092EF9EF0F7
:103D200095EF9EF0186A0A0E176E1950D8B49BEFE3
:103D30009EF09DEF9EF0B8EF9EF029B0A2EF9EF0AE
:103D4000A4EF9EF0AEEF9EF0FF0E256EFF0E266EE6
:103D5000FF0E276E7F0E286EBCEF9EF0000E256EC4
:103D6000000E266E000E276E800E286EBCEF9EF0B1
:103D700025682668276828682AC51DF52BC51EF505
:103D80002CC51FF52DC520F530C51AF5200E1A12C9
:103D90009F0E1A261A0E1A60D0EF9EF0D2EF9EF0F8
:103DA000EFEF9EF030C51AF59F0E1A26190E1A6411
:103DB000DCEF9EF0DEEF9EF0E3EF9EF030C523F5E2
:103DC000246AEAEF9EF030C51AF55F0E1A161A50F3
:103DD000236E246A2350C90F306EFDEF9EF030C56C
:103DE0001AF5D00E1A260A0E1A60F9EF9EF0FBEFB4
:103DF0009EF075EF9FF0300E305E30501A6E1B6AE9
:103E000017501A5C1B50800A1C6E1850800A1C58F0
:103E1000D8A00DEF9FF00FEF9FF011EF9FF075EF1F
:103E20009FF029B216EF9FF018EF9FF06AEF9FF016
:103E300017C507F518C508F5000E08BEFF0E096E78
:103E40000A6E2AC50BF52BC50CF52CC50DF52DC535
:103E50000EF58DECEEF0305007242A6E000E08208F
:103E60002B6E000E09202C6E000E0A202D6E1D50A8
:103E70002A5C1E502B581F502C5820502D58D8A06B
:103E800044EF9FF046EF9FF05DEF9FF01950D8B4DC
:103E90004CEF9FF04EEF9FF06AEF9FF02A50255CA9
:103EA0002B5026582C5027582D502858D8B05BEF4F
:103EB0009FF05DEF9FF06AEF9FF025C52AF526C5BC
:103EC0002BF527C52CF528C52DF50701186B220EFB
:103ED000176F29822E4A2F2A2EC5D9F42FC5DAF45E
:103EE000DF50306E2984BCEF9EF02950030BE806AA
:103EF000D8A47DEF9FF07FEF9FF087EF9FF02D1EFE
:103F00002C1E2B1E2A6C000E2B222C222D2215502B
:103F10001610D8B48EEF9FF090EF9FF0A3EF9FF0B4
:103F200029B495EF9FF097EF9FF09BEF9FF013C59B
:103F30002EF514C52FF515C5D9F416C5DAF42EC51E
:103F4000DEF42FC5DDF42AC513F52BC514F52CC5F9
:103F500015F52DC516F5120007013F6B3E6BD6EC2B
:103F6000E0F0086A050E076ED4ECDDF0A8ECEAF08C
:103F7000A90E0501606FFE0E616FA00E626FFA0E52
:103F8000636FA8ECF4F044ECF5F02CECF5F0F6ECF3
:103F9000ECF08CECF3F065ECE7F051C535F752C569
:103FA00036F75AECB4F04EECF1F00601B7BFDDEF96
:103FB0009FF0DBEF9FF0DFEF9FF0DDEF9FF058EC1D
:103FC000ADF00601FBBFE9EF9FF0E7EF9FF008EFD0
:103FD000A0F0E9EF9FF0F90E7125DA6FFF0E722164
:103FE000DB6F71C707F572C708F5D4ECDDF02BEF76
:103FF000A0F0DB6B040EDA6FF1EF9FF0DB6B050EC8
:10400000DA6FF1EF9FF0DB6B000EDA6F2BEFA0F0B1
:1040100071C7D4F772C7D5F70701D551000AD8B4D4
:1040200014EFA0F003EFA0F0D451080AD8B4EBEFDE
:104030009FF0010AD8B4EBEF9FF0030AD8B4EBEF7E
:104040009FF0060AD8B4F9EF9FF01C0AD8B4FEEF2F
:104050009FF003EFA0F0130E0501606FFE0E616F7D
:10406000D8900701DA35D96EDB35DA6EF10ED92634
:10407000080EDA22DEC462F5DDC463F5A8ECF4F0C4
:1040800026ECF6F007015E6B000E5D6F606B000EB4
:104090005F6FD96B010ED86F346B000E336F9D0EBE
:1040A0000501606FFE0E616FA8ECF4F0B30E050120
:1040B000606FFC0E616FA8ECF4F0870E0501606F75
:1040C000FC0E616FA8ECF4F0710E0501606FFC0E40
:1040D000616FA8ECF4F0840E0501606FFB0E616F58
:1040E000A8ECF4F00F0E0501606FFF0E616FA8ECF5
:1040F000F4F0FE0E0501606FFB0E616FA8ECF4F0AA
:10410000910E0501606FFE0E616FA8ECF4F0E40EF5
:104110000501606FFE0E616FA8ECF4F0F80E05016A
:10412000606FFF0E616FA8ECF4F084ECF2F007C54D
:10413000DAF708C5DBF7D00E0701DA25D66FFF0ED8
:10414000DB21D76FD75107E1080ED65DD8B0ABEFB2
:10415000A0F0ADEFA0F0BAEFA0F0DA51E2ECF5F08C
:10416000080EE2ECF5F0D00E0701DA25D86FFF0E4D
:10417000DB21D96F0D0EDA19DB11D8B4C2EFA0F034
:10418000C4EFA0F0CEEFA0F00A0EDA19DB11D8A42C
:10419000CCEFA0F0CEEFA0F095EFA0F0830E0501DC
:1041A000606FF40E616FA8ECF4F07A0E07010F6FE8
:1041B000600E106F010E116FDB6B000EDA6FA4EF53
:1041C000A1F0F0ECA1F042EFA0F0770E0601FA6F3B
:1041D000FE0EFB6F6FC707F570C708F56DC709F5D1
:1041E0006EC70AF519ECF4F007C5FCF608C5FDF634
:1041F00009C5FEF60AC5FFF6B0ECC9F0FAC6DAF753
:10420000FBC6DBF7CEEFA1F05D0EA26FFE0EA36F33
:10421000FBECDBF0A2C7DAF7A3C7DBF7CEEFA1F028
:104220006A0EA26FFE0EA36FFBECDBF0A2C7DAF7FB
:10423000A3C7DBF7CEEFA1F0CD0EA26FFE0EA36FEA
:10424000FBECDBF0A2C7DAF7A3C7DBF7CEEFA1F0F8
:10425000C10EA26FFE0EA36FFBECDBF0A2C7DAF774
:10426000A3C7DBF7CEEFA1F0710E0601B16FFF0E11
:10427000B26FAEECD6F00601B151B211D8B443EF33
:10428000A1F045EFA1F047EFA1F042EFA0F0FB6BEA
:10429000010EFA6F6AECBEF00601FBBF54EFA1F00D
:1042A00052EFA1F05DEFA1F0F20E0501606FFC0E80
:1042B000616FA8ECF4F042EFA0F042ECC2F007010D
:1042C000A251A311D8B467EFA1F069EFA1F0CEEF2E
:1042D000A1F042EFA0F07A0E0601B16FFF0EB26FAF
:1042E000AEECD6F00601B151B211D8B47AEFA1F01C
:1042F0007CEFA1F07EEFA1F042EFA0F0FB6B020E8D
:10430000FA6F6AECBEF00601FBBF8BEFA1F089EFFC
:10431000A1F094EFA1F0F20E0501606FFC0E616F49
:10432000A8ECF4F042EFA0F07AECDAF0D3ECB6F0BF
:104330000701A251A311D8B4A0EFA1F0A2EFA1F000
:10434000CEEFA1F042EFA0F0D8C7D4F7D9C7D5F788
:10435000D551000AD8B4AFEFA1F06BEFA1F0D45162
:10436000000AD8B4E1EFA0F0010AD8B4E5EFA0F05C
:10437000030AD8B404EFA1F0010AD8B410EFA1F0F9
:10438000070AD8B41CEFA1F0010AD8B428EFA1F0B5
:10439000030AD8B434EFA1F06BEFA1F00701DA51B2
:1043A000DB11D8B4D6EFA1F0D8EFA1F0E1EFA1F086
:1043B000350E0501606FFA0E616FA8ECF4F042EF64
:1043C000A0F0830E0501606FF40E616FA8ECF4F0AD
:1043D00010ECF3F0B7ECEBF042EFA0F085EF00F05B
:1043E0000501776B57C712F558C713F57E0E146E8B
:1043F000050E156E7A0E166E050E176E7C0E186E73
:10440000050E196E86ECD5F005017F5109E1500EBD
:104410007E5DD8A00EEFA2F010EFA2F016EFA2F092
:104420006C0E7E27070E7F231AEFA2F0D00E7E2798
:10443000070E7F23150E0501606FFC0E616F7EC5B0
:1044400062F57FC563F57AC564F57BC565F57CC506
:1044500066F57DC567F5A8ECF4F05A0E0501786F96
:104460001B0E796F78C56CF579C56DF56F6B500EC5
:104470006E6F5BECD8F005016C516D11D8B443EF51
:10448000A2F045EFA2F015EFA3F078C512F579C5BB
:1044900013F5800E146E050E156E840E166E050E45
:1044A000176E820E186E050E196EEDECDCF01250D0
:1044B0001310D8B45EEFA2F060EFA2F069EFA2F0A3
:1044C000680E0501606FFB0E616FA8ECF4F01AEF47
:1044D000A2F0BC0E0501805D070E8159D8A073EFD4
:1044E000A2F075EFA2F080EFA2F0200E805D080E22
:1044F0008159D8A07EEFA2F080EFA2F088EFA2F061
:10450000680E606FFB0E616FA8ECF4F01AEFA2F07A
:10451000855107E10D0E845DD8B091EFA2F093EFC5
:10452000A2F09CEFA2F084518511D8A49AEFA2F0DA
:104530009CEFA2F0A4EFA2F0680E606FFB0E616F1B
:10454000A8ECF4F01AEFA2F0020E84198511D8A499
:10455000ACEFA2F0AEEFA2F0D2EFA2F01D0E8219E6
:104560008311D8A4B6EFA2F0B8EFA2F0D2EFA2F078
:1045700080C50CF581C50DF575ECEBF00C500D10F8
:10458000D8B4C5EFA2F0C7EFA2F0C9EFA2F006EFD2
:10459000A3F0680E0501606FFB0E616FA8ECF4F0EC
:1045A0001AEFA2F084C573F585C574F5D8907337FA
:1045B0007437FE0E7325756FFF0E7421766F2D0E06
:1045C0007525F66EF40E7621F76EF86A000EF82265
:1045D00082510900F55C83510900F558D8A0F3EF2A
:1045E000A2F0F5EFA2F0FEEFA2F082518311D8A461
:1045F000FCEFA2F0FEEFA2F006EFA3F0680E606FF2
:10460000FB0E616FA8ECF4F01AEFA2F080C57EF506
:1046100081C57FF584C57AF585C57BF582C57CF5B6
:1046200083C57DF5010E0501776F5AC780F5816B53
:1046300059C784F5856B5CC782F5836B2C0E050129
:10464000606FFC0E616F5AC762F5636B59C764F502
:10465000656B5CC766F5676BA8ECF4F05A0E050154
:10466000786F1B0E796F78C56CF579C56DF56F6B3A
:10467000500E6E6F5BECD8F005016C516D11D8B423
:1046800044EFA3F046EFA3F0B1EFA3F078C512F525
:1046900079C513F5800E146E050E156E840E166E18
:1046A000050E176E820E186E050E196EEDECDCF01D
:1046B00012501310D8B45FEFA3F061EFA3F06AEFCC
:1046C000A3F0680E0501606FFB0E616FA8ECF4F0BB
:1046D0001EEFA3F00501815109E1180E805DD8A0FD
:1046E00074EFA3F076EFA3F07EEFA3F0680E606F97
:1046F000FB0E616FA8ECF4F01EEFA3F0855109E109
:104700003C0E845DD8A087EFA3F089EFA3F091EF72
:10471000A3F0680E606FFB0E616FA8ECF4F01EEF63
:10472000A3F0835109E13C0E825DD8A09AEFA3F07B
:104730009CEFA3F0A4EFA3F0680E606FFB0E616F17
:10474000A8ECF4F01EEFA3F0A19E80C55AF784C533
:1047500059F782C55CF7F5ECEEF0A18E010E05016C
:10476000776F7751D8B4B7EFA3F0B9EFA3F019EF93
:10477000A4F07EC518F57FC519F57AC51AF57BC575
:104780001BF57CC51CF57DC51DF500ECE0F018C5DA
:1047900057F719C558F7070135513611D8B4D3EF7B
:1047A000A3F0D5EFA3F0F3EFA3F0F5ECEEF0000EDD
:1047B000076E070E086E500E096E070E0A6ED00EB9
:1047C00038ECE9F0FF0AD8A4E8EFA3F0EAEFA3F091
:1047D000F3EFA3F0520E0501606FFB0E616FA8ECC2
:1047E000F4F019EFA4F0700E0501606FF90E616F1F
:1047F0007EC562F57FC563F57AC564F57BC565F551
:104800007CC566F57DC567F5A8ECF4F01A0E0501C8
:10481000606FFA0E616F80C562F581C563F584C56E
:1048200064F585C565F582C566F583C567F5A8ECB1
:10483000F4F012000FC6D9F410C6DAF4DEC423F681
:10484000DDC424F6060120EE0EF00F51D9261051DA
:10485000DA22DEC413F6DEC414F6DEC415F6DEC4B6
:1048600016F6200E13251F6F000E1421206F000E68
:104870001521216F000E1621226F225109E1200E11
:10488000215DD8A046EFA4F048EFA4F052EFA4F0C9
:1048900020EE16F00F51D9261051DA22DE6ADE6AB8
:1048A000DE6ADD6A20EE16F00F51D9261051DA22A9
:1048B000DE50DE10DE10DE10D8A461EFA4F063EF4E
:1048C000A4F066EFA4F0040E2EEFA6F0FF0E1F1565
:1048D000136F010E2015146F000E2115156F000EB9
:1048E0002215166F1351141115111611D8A47BEF50
:1048F000A4F07DEFA4F005EFA6F020EE16F00F5126
:10490000D9261051DA22DE2A000EDE22DE22DE2235
:1049100020EE12F00F51D9261051DA22DE50DE10AF
:10492000DE10DE10D8A497EFA4F099EFA4F0D7EF33
:10493000A4F020EE08F02351D9262451DA22DEC457
:1049400013F6DDC414F61351156F1451166F176B5F
:10495000186B1FC619F620C61AF621C61BF622C60A
:104960001CF6060EB9EFA4F0D8901C331B331A3393
:104970001933E82EB4EFA4F01551195D16511A59E8
:1049800017511B5918511C59D8A0C9EFA4F0CBEFEF
:10499000A4F005EFA6F020EE16F00F51D926105125
:1049A000DA22DE6ADE6ADE6ADD6A63EFA4F020EEF8
:1049B0000AF02351D9262451DA22DEC413F6DDC4CD
:1049C00014F6FF0E1325156FFF0E1421166F1FC668
:1049D00017F620C618F621C619F622C61AF60A0ED0
:1049E000F7EFA4F0D8901A33193318331733E82EA1
:1049F000F2EFA4F0155117151B6F165118151C6F07
:104A0000000E19151D6F000E1A151E6F1B511C117B
:104A10001D111E11D8A40FEFA5F011EFA5F005EFA1
:104A2000A6F00FC6CEF510C6CFF520EE12F00F514E
:104A3000D9261051DA22DEC4D0F5DEC4D1F5DEC4A9
:104A4000D2F5DEC4D3F52FECA6F0CEC525F6CFC542
:104A500026F6D0C527F6D1C528F60601285127111C
:104A6000261107E1020E255DD8B039EFA5F03BEF26
:104A7000A5F03EEFA5F0020E2EEFA6F025290AE1E3
:104A8000262908E1272906E12829D8A44AEFA5F01C
:104A90004CEFA5F04FEFA5F0010E2EEFA6F020EEA3
:104AA00014F02351D9262451DA22DE50255DDE5040
:104AB0002659DE502759DE502859D8A062EFA5F0BC
:104AC00064EFA5F0D9EFA5F011511211D8A46BEF46
:104AD000A5F06DEFA5F079EFA5F020EE16F00F51DF
:104AE000D9261051DA22DE6ADE6ADE6ADD6A63EFF9
:104AF000A4F00FC6EFF510C6F0F520EE12F00F513E
:104B0000D9261051DA22DEC4F1F5DEC4F2F5DEC496
:104B1000F3F5DEC4F4F558EC95F0EFC525F6F0C5D5
:104B200026F6F1C527F6F2C528F60601255126110D
:104B300027112811D8A49FEFA5F0A1EFA5F0A4EFAD
:104B4000A5F0070E2EEFA6F0250526112711281136
:104B5000D8A4ADEFA5F0AFEFA5F0B1EFA5F03BEF16
:104B6000A5F025290AE1262908E1272906E12829B7
:104B7000D8A4BDEFA5F0BFEFA5F0C1EFA5F04CEFB5
:104B8000A5F023C6C3F524C6C4F525C6C5F526C6BB
:104B9000C6F527C6C7F528C6C8F5BDECD1F0000993
:104BA000D8B4D5EFA5F0D7EFA5F0D9EFA5F04CEF2D
:104BB000A5F0060120EE12F00F51D9261051DA228D
:104BC00025C6DEF426C6DEF427C6DEF428C6DEF4EB
:104BD00023C613F524C614F525C615F526C616F505
:104BE00027C617F528C618F5A5ECE1F0060120EE5A
:104BF00016F00F51D9261051DA2213C5DEF414C570
:104C0000DEF415C5DEF416C5DEF420EE0EF00F510D
:104C1000D9261051DA221FC6DEF420C6DEF421C6E2
:104C2000DEF422C6DEF4FF0E1F15136F010E2015F1
:104C3000146F13512325156F14512421166F300E54
:104C40001527000E162320EE1AF00F51D926105109
:104C5000DA2215C6DEF416C6DDF4000E1200CEC54B
:104C6000D9F4CFC5DAF4DEC4E6F5DDC4E7F5050115
:104C7000D351D211D11109E1020ED05DD8A043EF7A
:104C8000A6F045EFA6F05AEFA6F020EE14F0E6519C
:104C9000D926E751DA22DE50D05DDE50D159DE5000
:104CA000D259DE50D359D8A058EFA6F05AEFA6F04B
:104CB00064EFA6F0010EE06F000EE16F000EE26FF0
:104CC000000EE36F1CEFA8F0E069E169E269E369B7
:104CD00009EFA8F0D0C5E4F5D1C5E5F5D890E531E8
:104CE000D56FE431D46FD451E427D551E523E6C51F
:104CF000C3F5E7C5C4F520EE20F0E651D926E7510B
:104D0000DA22DEC4D4F5DEC4D5F5DEC4D6F5DEC4C1
:104D1000D7F5E4C5D8F5E5C5D9F5090EDA6FD89011
:104D2000D933D833DA2F8FEFA6F0D851D425C56FF9
:104D3000D951D521C66F000ED621C76F000ED721DD
:104D4000C86FD5ECE2F00009D8B4A9EFA6F0ABEF3C
:104D5000A6F0ADEFA6F01CEFA8F0FF0E0501E415DC
:104D6000D46F010EE515D56FD451E625D66FD55118
:104D7000E721D76F300ED625D96E000ED721DA6E17
:104D8000DF50D86FD851DE6FDF6BE44BE52BE6C503
:104D9000C3F5E7C5C4F520EE20F0E651D926E7516A
:104DA000DA22DEC4D4F5DEC4D5F5DEC4D6F5DEC421
:104DB000D7F5E4C5D8F5E5C5D9F5090EDA6FD89071
:104DC000D933D833DA2FDFEFA6F0D851D425C56F09
:104DD000D951D521C66F000ED621C76F000ED7213D
:104DE000C86FD5ECE2F00009D8B4F9EFA6F0FBEFFC
