:0400000085EF00F098
:100008008B7B8B7B8B7B8B7B8B7B8B7B8B7B8B7BB8
:100018008B7B8B7B8B7B8B7B8B7B8B7B8B7B8B7BA8
:100028008B7B8B7B8B7B8B7B8B7B8B7B8B7B8B7B98
:100038008B7B8B7B8B7B8B7B8B7B8B7B8B7B6A78AC
:100048008B7B8B7B8B7B8B7B8B7B8B7B8B7B8B7B78
:100058008B7B8B7B8B7B8B7B8B7B8B7B8B7B8B7B68
:100068008B7B8B7B8B7B8B7B8B7B8B7B8B7B8B7B58
:100078008B7B8B7B8B7B8B7B42008B7B8B7B8B7B0C
:100088008B7B8B7B8B7B8B7B8B7B8B7B8B7B8B7B38
:100098009A778B7B8B7B8B7B42008B7B8B7B8B7BE1
:1000A8008B7B8B7B8B7B8B7B8B7B8B7B8B7B8B7B18
:1000B8008B7B8B7B8B7B8B7B8B7B8B7B8B7B8B7B08
:1000C8008B7B8B7B8B7B8B7B8B7B8B7B8B7B8B7BF8
:1000D800CF798B7B8B7B8B7B8B7B8B7B8B7B8B7BA6
:1000E80042008B7B8B7B8B7B8B7B8B7B8B7B8B7B9C
:1000F8008B7B8B7B8B7B8B7B8B7B8B7B8B7B8B7BC8
:06010800FF0016EFE7F016
:10F42C00001F001C001F001E001F001E001F001FDD
:10F43C00001E001F001E001F00819FE0FC407E800C
:10F44C00FC0000534420436172643A20726561648D
:10F45C003531323A20435243206572726F72202844
:10F46C002530347820213D20253034782C207265CD
:10F47C007472793D2564290A0D00496D6167652018
:10F48C0066696C652025732F445249564525632EB9
:10F49C0044534B2069732061737369676E656420F4
:10F4AC00746F2064726976652025630A0D006469A7
:10F4BC00736B5F696F63746C3A20706472763D2570
:10F4CC00642C20636D643D25642C20627566663D5A
:10F4DC003078256C783A207265733D25640A0D00EE
:10F4EC00534420436172643A202072656164353163
:10F4FC00323A20616464723D25386C642C206F664E
:10F50C0066733D25642C20636F756E743D25640A0B
:10F51C000D00534420436172643A2077726974651C
:10F52C003531323A20616464723D25386C642C208C
:10F53C006F6666733D25642C20636F756E743D2574
:10F54C00640A0D00534420436172643A2077726957
:10F55C0074653531323A206661696C656420746F6C
:10F56C002067657420746F6B656E2C2074696D65F3
:10F57C006F75740A0D00534420436172643A20770E
:10F58C00726974653531323A2074696D656F7574C2
:10F59C002C20726573706F6E736520697320253033
:10F5AC0032780A0D00534420436172643A20434D73
:10F5BC004435382C2052333D2530327820253032DA
:10F5CC00782025303278202530327820253032785A
:10F5DC000A0D0025733A204552524F523A20636C63
:10F5EC006F636B20737065656420256420697320DC
:10F5FC006E6F7420737570706F727465640A0D0091
:10F60C00534420436172643A20434D44382C2052B9
:10F61C00373D25303278202530327820253032782D
:10F62C00202530327820253032780A0D0064697339
:10F63C006B5F696F63746C3A20706472763D2564FD
:10F64C002C20636D643D25643A204E6F74206861F4
:10F65C006E646C65642E0A0D006469736B5F726571
:10F66C0061643A2020706472763D25642C207365A9
:10F67C0063746F723D256C642C20636F756E743DE2
:10F68C0025640A0D006469736B5F77726974653A5F
:10F69C0020706472763D25642C20736563746F72E0
:10F6AC003D256C642C20636F756E743D25640A0DCA
:10F6BC0000536574757020445331333037205254E5
:10F6CC0043206D6F64756C6520666F7220636C6F80
:10F6DC00636B206465766963652E0D0A00534420C4
:10F6EC00436172643A20434353202843617264207F
:10F6FC004361706163697479205374617475732903
:10F70C0020697320300A0D00534420436172643A1F
:10F71C002077726974653531323A20435243206543
:10F72C0072726F72202872657472793D2564290A91
:10F73C000D00534420436172643A2043617264208B
:10F74C00706F776572207570207374617475732097
:10F75C0062697320697320300A0D00726561642040
:10F76C004D425220706172746974696F6E207461BD
:10F77C00626C6520617420736563746F7220300A4B
:10F78C000D00534420436172643A20534448432093
:10F79C006F72205344584320636172642064657413
:10F7AC0065637465640A0D0025733A204552524F07
:10F7BC00523A206D6F6465202564206973206E6F4A
:10F7CC007420737570706F727465640A0D004C6FE1
:10F7DC006164202573203A20416472203D2025303D
:10F7EC00366C782C2053697A65203D20253034788E
:10F7FC000D0A00534420436172643A20696E6974A7
:10F80C0069616C697A65202E2E2E20737563636591
:10F81C00656465640A0D00534420436172643A20A8
:10F82C00756E657870656374656420726573706F4E
:10F83C006E736520253032780A0D005344204361E5
:10F84C0072643A2041434D44343120726573706FB9
:10F85C006E736520697320253032780A0D0053448D
:10F86C0020436172643A2077726974653531323A9B
:10F87C0020746F6B656E20697320253032780A0D09
:10F88C00004D656D6F727920303030303030202D66
:10F89C00202530366C5848202564204B42204F4B95
:10F8AC000D0A00534420436172643A20434D4435A1
:10F8BC003920726573706F6E736520697320253003
:10F8CC0032780A0D00706172746974696F6E2073FE
:10F8DC00746172747320617420736563746F722029
:10F8EC00256C640A0D0053657475702074696D6520
:10F8FC00723020666F7220636C6F636B2064657668
:10F90C006963652E0D0A00665F7772697465282934
:10F91C003A204552524F52207265733D25642C207B
:10F92C006E3D25640A0D00665F7265616428293A94
:10F93C00204552524F52207265733D25642C206E27
:10F94C003D25640A0D005365747570205541525461
:10F95C003520666F72204155582064657669636561
:10F96C002E0A0D006661696C656420746F207772D5
:10F97C0069746520736563746F7220256C640A0D5D
:10F98C00000D0A5365742044617465282530346475
:10F99C002F253032642F25303264290D0A00554E44
:10F9AC004B4E4F574E20444556494345203A204331
:10F9BC004D442825303278290D0A006661696C6542
:10F9CC006420746F207265616420736563746F7258
:10F9DC0020256C640A0D000A0D53442043617264A7
:10F9EC003A20696E697469616C697A65202E2E2ED5
:10F9FC000A0D005365742054696D652825303264F6
:10FA0C003A253032643A25303264290D0A0050729E
:10FA1C006F6772616D2046696C65204C6F61642064
:10FA2C004572726F722E0D0A004661696C65642016
:10FA3C00746F206D6F756E74205344204361726433
:10FA4C002E0A0D00554E4B4E4F574E20756E696D5C
:10FA5C006F6E20434D442825303278290D0A00530F
:10FA6C004420436172643A2041434D4434312C208C
:10FA7C0052313D253032780A0D006661696C65643F
:10FA8C0020746F207265616420736563746F7220DB
:10FA9C00300A0D004661696C656420746F206F70CC
:10FAAC00656E20534420436172642E0A0D004D454F
:10FABC005A38385F52414D204669726D77617265D4
:10FACC0020526576312E33000A4D656D6F727920A8
:10FADC006572726F72206174202530366C58480A3A
:10FAEC000D006469736B5F696E697469616C697A26
:10FAFC0065282564292E2E2E0A0D004453313330EF
:10FB0C0037205769746520493243206572726F72D1
:10FB1C00210D0A004E6F2025732064697265637491
:10FB2C006F727920666F756E642E0D0A00333A542D
:10FB3C006F796F7368696B692054696E79204261C3
:10FB4C007369630A0D00534420436172643A206E5A
:10FB5C006F74207375706F70727465640A0D005346
:10FB6C004420436172643A20434D44302C2052317E
:10FB7C003D253032780A0D00202020202020202026
:10FB8C002020202020202020202020202020200D7C
:10FB9C00007761697420666F722070726F67726192
:10FBAC006D6D6572202E2E2E0D0025732535337349
:10FBBC0020434845434B53554D3A20253032780A63
:10FBCC000D004D656D6F7279203030303030302043
:10FBDC002D202530366C58480D0049324320627573
:10FBEC0073206973206E6F742065786973742E0AA4
:10FBFC000D00706879736963616C20647269766555
:10FC0C007220213D20300A0D00353A47414D452DDB
:10FC1C004320496E7465727072657465720A0D00CA
:10FC2C004461746520253034642F253032642F25CF
:10FC3C00303264203D200054696D652025303264DB
:10FC4C003A253032643A25303264203D20000A4D8A
:10FC5C00656D6F727920777261702061726F756E4D
:10FC6C00642E0A0D00323A38303836204E41534358
:10FC7C004F4D2042415349430A0D00313A556E69AC
:10FC8C0076657273616C204D6F6E69746F720A0DBC
:10FC9C0000665F6C7365656B28293A204552524F9C
:10FCAC00522025640A0D006E6F20464154333220D9
:10FCBC00706172746974696F6E0A0D00303A544F3A
:10FCCC00442854696D65204F6620446179290A0DDA
:10FCDC0000665F73796E6328293A204552524F5261
:10FCEC002025640A0D004E6F2064726976652041F0
:10FCFC0020666F756E642E0A0D006E6F204D425299
:10FD0C00207369676E61747572650A0D0046696CC3
:10FD1C00652072656164206572726F72210D0A0034
:10FD2C00342E39324D487A20647574792033382E4C
:10FD3C00342500392E31344D487A2064757479207D
:10FD4C0034322E392500445331333037205254434A
:10FD5C00206D6F64756C65200053442043617264A0
:10FD6C003A2074696D656F75740A0D006E6F20769C
:10FD7C00616C696420766F6C756D650A0D00536556
:10FD8C0074206465627567206D6F64652E0D0A00C2
:10FD9C0031302E36374D487A2064757479203530E1
:10FDAC002500534420436172643A20726561647982
:10FDBC002E0A0D002573206E6F7420666F756E64AD
:10FDCC002E2E0D0A0031322E384D487A206475746F
:10FDDC007920363025005350495F53445F636F6E72
:10FDEC0066696775726500384D487A206475747958
:10FDFC002033372E3525006973206E6F742065789B
:10FE0C006973742E0D0A002A2B2C3A3B3C3D3E5B49
:10FE1C005D7C223F7F0043505520636C6F636B20E9
:10FE2C0025730D0A0031364D487A2064757479209B
:10FE3C003530250025732F445249564525632E44F1
:10FE4C00534B004E6F20534420436172643F0A0DA4
:10FE5C000042415349435F38362E42494E005454B8
:10FE6C005F42415338382E42494E00554D4F4E5F3C
:10FE7C005338382E42494E004343505F42444F534F
:10FE8C002E42494E00363A43502F4D2D38360A0D2E
:10FE9C00000A0D53656C6563743A0A0D00426F617C
:10FEAC0072643A2025730A0D0044657465637420EE
:10FEBC0025730A0D00474D495F5338382E42494E81
:10FECC000056544C5F5338382E42494E00434C4B2D
:10FEDC00203D2025640D0A00373A4D532D444F53D5
:10FEEC000A0D00554E494D4F4E5F4F464600554E3C
:10FEFC00494D4F4E5F534547004C6F61642025734D
:10FF0C000D0A00343A56544C2D430A0D0043424915
:10FF1C004F535F4F464600494F5359535F4F464628
:10FF2C0000494F5359535F534547004D455A383894
:10FF3C002E434647004342494F532E42494E004DF3
:10FF4C0053444F532E535953006578697374732E71
:10FF5C000D0A0046415433322020200025732530F1
:10FF6C00366C783A0041504C495F4F464600415040
:10FF7C004C495F5345470043504D4449534B530044
:10FF8C00444F534449534B53002573253034783A2E
:10FF9C000043504D5F4F46460043504D5F5345471D
:10FFAC0000286E756C6C2900494F2E535953002054
:10FFBC0025303278006661743A200025732F257342
:10FFCC00006275663A2000303A2F2F0045584543A1
:10FFDC000052443A200057523A200053443A200031
:10FFEC00494E46004E614E00434C4B004F56003F6D
:03FFFC00200000E2
:020000040001F9
:10000000FCC5D9F4FDC5DAF4DE6ADD6AFAC507F588
:10001000FBC508F585ECC8F007C58DF608C58EF65A
:1000200006018EBF18EF80F016EF80F01BEF80F016
:100030000B0E70EF85F0D8908D35D96E8E35DA6E57
:10004000220ED926070EDA22DEC4A8F6DDC4A9F6F0
:10005000A851A911D8A42FEF80F031EF80F034EF30
:1000600080F00C0E70EF85F0FCC5D9F4FDC5DAF414
:10007000A8C6DEF4A9C6DDF40501FE91A8C6D9F430
:10008000A9C6DAF4DF50D8B448EF80F04AEF80F028
:1000900074EF80F0060120EE01F0A851D926A95195
:1000A000DA22DF5023ECF4F006019D6F9DB15BEF87
:1000B00080F05DEF80F074EF80F00501FE51D8B460
:1000C00064EF80F066EF80F071EF80F006019DA58F
:1000D0006CEF80F06EEF80F071EF80F00A0E70EF41
:1000E00085F0000E70EF85F0A8C6D9F4A9C6DAF441
:1000F000DF6A060120EE01F0A851D926A951DA22C3
:10010000DF50E2ECC6F006019D6F9DA18AEF80F002
:100110008CEF80F08FEF80F0030E70EF85F005011B
:10012000FE51D8B496EF80F098EF80F0A2EF80F007
:1001300006019DA59EEF80F0A0EF80F0A2EF80F079
:100140006EEF80F0A8C6DCF5A9C6DDF5000E05014E
:10015000DF6F000EDE6FC8ECBFF0DCC5A6F6DDC5B4
:10016000A7F6040E0601A619A711D8A4BAEF80F0CD
:10017000BCEF80F0BFEF80F0010E70EF85F0A7516B
:1001800009E1020EA65DD8A0C8EF80F0CAEF80F0AA
:10019000CDEF80F00D0E70EF85F020EE2CF0A85121
:1001A000D926A951DA22DEC499F6DEC49AF6DEC455
:1001B0009BF6DEC49CF63B0EA825076E000EA92117
:1001C000086EB6ECF4F0020E08180710D8B4EBEF86
:1001D00080F0EDEF80F0EFEF80F0CAEF80F0460E98
:1001E0000601A825076E000EA921086EB6ECF4F0F2
:1001F00007C5A2F608C5A3F60601A46BA56BA2511C
:10020000A311A411A511D8A408EF81F00AEF81F081
:100210001AEF81F0540EA825076E000EA921086E72
:10022000A9ECE5F007C5A2F608C5A3F609C5A4F632
:100230000AC5A5F6060120EE18F0A851D926A95145
:10024000DA22A2C6DEF4A3C6DEF4A4C6DEF4A5C696
:10025000DEF420EE40F0A851D926A951DA2210EEA2
:1002600003F0A851E126A951E222DFC4E7F420EE11
:1002700003F0A851D926A951DA22DE04D8B443EFFD
:1002800081F045EF81F056EF81F020EE03F0A851A8
:10029000D926A951DA22020EDE18D8B452EF81F025
:1002A00054EF81F056EF81F0CAEF80F0A2C614F54A
:1002B000A3C615F5A4C616F5A5C617F520EE03F0DE
:1002C000A851D926A951DA22DF50816F8151186EC9
:1002D000196A1A6A1B6AA3ECEFF014C5A2F615C5D9
:1002E000A3F616C5A4F617C5A5F6060120EE3DF047
:1002F000A851D926A951DA22DF50816F826B20EEF6
:100300000AF0A851D926A951DA2281C6DEF482C6A4
:10031000DDF420EE0AF0A851D926A951DA22DE50E8
:10032000DE10D8B496EF81F098EF81F0CAEF80F03C
:1003300020EE0AF0A851D926A951DA22DEC481F6AE
:10034000DDC482F620EE0AF0A851D926A951DA229E
:10035000DEC483F6DDC484F6FF0E8325856FFF0EB1
:100360008421866F81518515876F82518615886F2C
:1003700087518811D8B4BFEF81F0C1EF81F0C3EF8E
:1003800081F0CAEF80F0410EA825076E000EA9216A
:10039000086EB6ECF4F0060120EE08F0A851D9265C
:1003A000A951DA2207C5DEF408C5DDF420EE08F015
:1003B000A851D926A951DA22DEC481F6DDC482F61D
:1003C0000F0E8117000E821781518211D8B4EBEF06
:1003D00081F0EDEF81F0EFEF81F0CAEF80F0430E96
:1003E000A825076E000EA921086EB6ECF4F007C52B
:1003F00095F608C596F60601976B986B9551961180
:1004000097119811D8A407EF82F009EF82F019EF45
:1004100082F0500EA825076E000EA921086EA9ECE7
:10042000E5F007C595F608C596F609C597F60AC51D
:1004300098F63E0E0601A825076E000EA921086E4B
:10044000B6ECF4F007C593F608C594F6060193518F
:100450009411D8A42EEF82F030EF82F032EF82F0C8
:10046000CAEF80F020EE08F0A851D926A951DA226F
:10047000DEC481F6DDC482F6040E836FD890823329
:100480008133832F3EEF82F093518125846F945105
:100490008221856F866BD8B0862B876BA25184250D
:1004A0008F6FA3518521906FA4518621916FA55123
:1004B0008721926F8F51955D90519659915197591F
:1004C00092519859D8B067EF82F069EF82F06BEFE4
:1004D00082F0CAEF80F08F51955D076E905196596A
:1004E000086E91519759096E925198590A6E20EEF3
:1004F0000AF0A851D926A951DA22DEC481F6DDC45A
:1005000082F681C60BF582C60CF50D6A0E6A67ECA1
:10051000E8F007C59EF608C59FF609C5A0F60AC50E
:10052000A1F606019E519F11A011A111D8A49BEF25
:1005300082F09DEF82F09FEF82F0CAEF80F0000E14
:10054000A76F000EA66FF60E9E5DFF0E9F59FF0E61
:10055000A0590F0EA159D8B0B0EF82F0B2EF82F0DF
:10056000B6EF82F0000EA76F030EA66FA151A01187
:1005700009E1F60E9E5DFF0E9F59D8B0C2EF82F0E2
:10058000C4EF82F0C8EF82F0000EA76F020EA66FD4
:10059000A151A01109E1F60E9E5D0F0E9F59D8B032
:1005A000D4EF82F0D6EF82F0DAEF82F0000EA76F80
:1005B000010EA66FA651A711D8A4E1EF82F0E3EFD8
:1005C00082F0E5EF82F0CAEF80F0020E9E25816F87
:1005D000000E9F21826F000EA021836F000EA121CB
:1005E000846F20EE14F0A851D926A951DA2281C6D1
:1005F000DEF482C6DEF483C6DEF484C6DEF420EECA
:100600001CF0A851D926A951DA2299C6DEF49AC65F
:10061000DEF49BC6DEF49CC6DEF493519925816F0F
:1006200094519A21826F000E9B21836F000E9C21B2
:10063000846F20EE20F0A851D926A951DA2281C674
:10064000DEF482C6DEF483C6DEF484C6DEF48F51A7
:100650009925816F90519A21826F91519B21836FCF
:1006600092519C21846F20EE28F0A851D926A951DF
:10067000DA2281C6DEF482C6DEF483C6DEF484C6E6
:10068000DEF4030EA619A711D8A449EF83F04BEFAF
:1006900083F0A8EF83F05A0EA825076E000EA9215B
:1006A000086EB6ECF4F007500810D8B45AEF83F097
:1006B0005CEF83F05EEF83F0CAEF80F0060120EE7E
:1006C00008F0A851D926A951DA22DE50DE10D8B49C
:1006D0006CEF83F06EEF83F070EF83F0CAEF80F081
:1006E0005C0EA825076E000EA921086EA9ECE5F0A6
:1006F000060120EE24F0A851D926A951DA2207C517
:10070000DEF408C5DEF409C5DEF40AC5DEF420EE29
:1007100014F0A851D926A951DA22DEC481F6DEC42C
:1007200082F6DEC483F6DEC484F6020ED8908137EA
:10073000823783378437E82E96EF83F081C689F6B7
:1007400082C68AF683C68BF684C68CF648EF84F0A0
:1007500020EE08F0A851D926A951DA22DE50DE1089
:10076000D8A4B5EF83F0B7EF83F0B9EF83F0CAEF09
:1007700080F020EE20F0A851D926A951DA22DEC45B
:1007800081F6DEC482F6DEC483F6DEC484F6A251AE
:100790008125856FA3518221866FA4518321876FA4
:1007A000A5518421886F20EE24F0A851D926A951A3
:1007B000DA2285C6DEF486C6DEF487C6DEF488C695
:1007C000DEF4020EA619A711D8B4E9EF83F0EBEF1F
:1007D00083F031EF84F020EE14F0A851D926A9510E
:1007E000DA22DEC481F6DEC482F6DEC483F6DEC41D
:1007F00084F6010E8115856F000E8215866F000E3E
:100800008315876F000E8415886F20EE14F0A851B1
:10081000D926A951DA22DEC414F5DEC415F5DEC4EA
:1008200016F5DEC417F5030E186E000E196E000ED5
:100830001A6E000E1B6EA3ECEFF0D8901732163232
:1008400015321432060185511424896F8651152002
:100850008A6F875116208B6F885117208C6F48EF55
:1008600084F020EE14F0A851D926A951DA22DEC472
:1008700081F6DEC482F6DEC483F6DEC484F6D89048
:100880008135896F82358A6F83358B6F84358C6FA4
:10089000FF0E8925816F010E8A21826F000E8B2148
:1008A000836F000E8C21846F0A0E5CEF84F0D89069
:1008B0008433833382338133E82E57EF84F020EE84
:1008C00018F0A851D926A951DA228151DE5C825153
:1008D000DE588351DE588451DE58D8B072EF84F070
:1008E00074EF84F076EF84F0CAEF80F020EE10F021
:1008F000A851D926A951DA22FF0EDE6EFF0EDE6E58
:10090000FF0EDE6EFF0EDD6EDD52DD5210EE0CF0DE
:10091000A851E126A951E222DEC4E6F4DEC4E6F4E1
:10092000DEC4E6F4DEC4E6F420EE05F0A851D926D4
:10093000A951DA22800EDF6E030EA619A711D8A4E2
:10094000A4EF84F0A6EF84F05AEF85F0600EA8259E
:10095000076E000EA921086EB6ECF4F0070408102B
:10096000D8A4B5EF84F0B7EF84F05AEF85F0A8C6AD
:10097000C3F5A9C6C4F5010E060199250501C56F89
:10098000000E06019A210501C66F000E06019B218B
:100990000501C76F000E06019C210501C86FBAEC66
:1009A000E3F00009D8A4D7EF84F0D9EF84F05AEF30
:1009B00085F0060120EE05F0A851D926A951DA22CA
:1009C000DF6A2E0EA825076E020EA921086EB6EC6E
:1009D000F4F0550E071807E1AA0E0818D8A4F3EF93
:1009E00084F0F5EF84F05AEF85F0300E0601A8256B
:1009F000076E000EA921086EA9ECE5F0520E07184B
:100A00000DE1520E08180AE1610E091807E1410EC6
:100A10000A18D8A40EEF85F010EF85F05AEF85F094
:100A2000140E0601A825076E020EA921086EA9EC76
:100A3000E5F0720E07180DE1720E08180AE1410E7A
:100A4000091807E1610E0A18D8A429EF85F02BEFE9
:100A500085F05AEF85F0180E0601A825076E020EE4
:100A6000A921086EA9ECE5F0060120EE10F0A851CE
:100A7000D926A951DA2207C5DEF408C5DEF409C576
:100A8000DEF40AC5DEF41C0EA825076E020EA921AD
:100A9000086EA9ECE5F0060120EE0CF0A851D9266D
:100AA000A951DA2207C5DEF408C5DEF409C5DEF473
:100AB0000AC5DEF4A8C6D9F4A9C6DAF4A6C6DFF4DE
:100AC0000701204B212B060120EE06F0A851D92664
:100AD000A951DA2220C7DEF421C7DDF471EF80F0DE
:100AE000120011C628F612C629F615C6D9F416C684
:100AF000DAF4DE6ADD6A0FC66CF510C66DF5380EE5
:100B000005016E6F060E6F6F2AECDCF00601276F91
:100B10002751D8A48EEF85F090EF85F0A0EF85F0F7
:100B200020EE0FF00F51D9261051DA22DF50276F37
:100B30002751D8B49EEF85F0A0EF85F0A3EF85F0A4
:100B40002751B9EF89F020EE0EF00F51D926105140
:100B5000DA22DFB2AEEF85F0B0EF85F0B3EF85F0CB
:100B6000070EB9EF89F020EE10F00F51D926105181
:100B7000DA2210EE10F00F51E1261051E222E6C405
:100B80001BF6E6C41CF6E6C41DF6E6C41EF61351B9
:100B90001B251F6F14511C21206F000E1D21216F7A
:100BA000000E1E21226FDE501F5DDE502059DE50E8
:100BB0002159DE502259D8B0E0EF85F0E2EF85F000
:100BC000F0EF85F020EE10F00F51D9261051DA2207
:100BD000DEC417F6DDC418F6171D136F181D146F49
:100BE00013511411D8A4F7EF85F0F9EF85F0FBEF5E
:100BF00085F0B0EF89F020EE10F00F51D92610519A
:100C0000DA22FF0EDE14176F010EDE14186F000ECD
:100C1000DE14196F000EDE141A6F17511811191116
:100C20001A11D8A416EF86F018EF86F0F4EF88F0CA
:100C300020EE10F00F51D9261051DA22DEC417F63B
:100C4000DEC418F6DEC419F6DEC41AF60A0E2EEF5C
:100C500086F0D8901A33193318331733E82E29EF5A
:100C600086F020EE0AF03851D9263951DA22DEC456
:100C70001BF6DDC41CF6FF0E1B251D6FFF0E1C218D
:100C80001E6F17511D152A6F18511E152B6F2A51F3
:100C90002B11D8A44EEF86F050EF86F019EF87F0B5
:100CA00020EE10F00F51D9261051DA22DE50DE105E
:100CB000DE10DE10D8A45FEF86F061EF86F093EFD0
:100CC00086F020EE06F00F51D9261051DA22DEC44C
:100CD0002EF6DEC42FF6DEC430F6DEC431F62E5119
:100CE0002F1130113111D8A478EF86F07AEF86F009
:100CF000AFEF86F00FC6EFF510C6F0F5000E050158
:100D0000F16F000EF26F000EF36F000EF46F68ECDF
:100D100095F0EFC52EF6F0C52FF6F1C530F6F2C509
:100D200031F6AFEF86F00FC6EFF510C6F0F520EE06
:100D300014F00F51D9261051DA22DEC4F1F5DEC4C9
:100D4000F2F5DEC4F3F5DEC4F4F568EC95F0EFC51A
:100D50002EF6F0C52FF6F1C530F6F2C531F60601D4
:100D60002E512F1130113111D8A4B9EF86F0BBEFFD
:100D700086F0BDEF86F0B0EF89F02E052F1130110F
:100D80003111D8A4C6EF86F0C8EF86F0D3EF86F015
:100D900020EE0FF00F51D9261051DA22020EDF6E2D
:100DA000020EB9EF89F02E290AE12F2908E1302936
:100DB00006E13129D8A4DFEF86F0E1EF86F0ECEF11
:100DC00086F020EE0FF00F51D9261051DA22010ED5
:100DD000DF6E010EB9EF89F020EE14F00F51D92625
:100DE0001051DA222EC6DEF42FC6DEF430C6DEF451
:100DF00031C6DEF420EE06F00F51D9261051DA226A
:100E0000DE50DE10DE10DE10D8A409EF87F00BEF05
:100E100087F019EF87F020EE06F00F51D926105118
:100E2000DA222EC6DEF42FC6DEF430C6DEF431C67A
:100E3000DEF420EE0EF00F51D9261051DA22DFAE8B
:100E400024EF87F026EF87F069EF87F0220E0F2559
:100E50000501A66F000E060110210501A76F06010E
:100E600020EE18F00F51D9261051DA22DEC4A8F571
:100E7000DEC4A9F5DEC4AAF5DEC4ABF5000E05019B
:100E8000AD6F010EAC6F060120EE01F03851D9268E
:100E90003951DA22DF50F1ECE9F00009D8B453EF10
:100EA00087F055EF87F060EF87F0060120EE0FF036
:100EB0000F51D9261051DA22010EDF6EE9EF86F0CC
:100EC000060120EE0EF00F51D9261051DA227F0EC6
:100ED000DF1638C620F539C621F520EE14F00F5183
:100EE000D9261051DA22DEC422F5DEC423F5DEC491
:100EF00024F5DEC425F554ECE3F020C534F621C515
:100F000035F622C536F623C537F6060134513511BC
:100F100036113711D8A48FEF87F091EF87F09BEF50
:100F200087F020EE0FF00F51D9261051DA22020E71
:100F3000DF6ED0EF86F02A5134272B513523000E77
:100F40003623000E372313C617F614C618F6090EFB
:100F5000196FD89018331733192FA9EF87F017C6D8
:100F60002CF618C62DF62C512D11D8B4BAEF87F0F7
:100F7000BCEF87F080EF88F02C512A25176F2D5198
:100F80002B21186F20EE0AF03851D9263951DA2278
:100F90001751DE5C1851DE58D8B0D1EF87F0D3EF8F
:100FA00087F0E3EF87F020EE0AF03851D926395167
:100FB000DA22DEC417F6DDC418F62A51175D2C6F4D
:100FC0002B5118592D6F28C6A6F529C6A7F534C68A
:100FD000A8F535C6A9F536C6AAF537C6ABF52CC6B1
:100FE000ACF52DC6ADF520EE01F03851D9263951BA
:100FF000DA22DF50F1ECE9F00009D8B402EF88F012
:1010000004EF88F00FEF88F0060120EE0FF00F518B
:10101000D9261051DA22010EDF6EE9EF86F00601C3
:101020002C51176F2D51186F196B1A6B20EE18F099
:101030000F51D9261051DA22DEC41BF6DEC41CF68D
:10104000DEC41DF6DEC41EF634511B5D1F6F355124
:101050001C59206F36511D59216F37511E59226F6F
:1010600017511F5D18512059195121591A512259F0
:10107000D8B03DEF88F03FEF88F06FEF88F0220E98
:101080000F25076E000E1021086E20EE18F00F518C
:10109000D9261051DA22DEC417F6DDC418F6345111
:1010A000175F3551185B090ED89017371837E82E9F
:1010B00054EF88F017512825096E185129210A6E1E
:1010C000020E0C6E000E0B6EE2ECF2F0060120EE4A
:1010D0000EF00F51D9261051DA227F0EDF162CC6E2
:1010E00017F62DC618F6090ED89017371837E82EC0
:1010F00074EF88F017C632F618C633F64AEF89F057
:1011000020EE18F00F51D9261051DA223451DE1892
:101110000FE13551DE180CE13651DE1809E1375187
:10112000DE18D8B496EF88F098EF88F0E5EF88F0F5
:1011300020EE0AF00F51D9261051DA2210EE10F0ED
:101140000F51E1261051E222DE50E65CDE50E658F7
:10115000DE50E658DE50E658D8B0B1EF88F0B3EF75
:1011600088F0E5EF88F0220E0F250501A86F000E2C
:10117000060110210501A96F34C6AAF535C6ABF5E5
:1011800036C6ACF537C6ADF5000EAF6F010EAE6FCB
:10119000060120EE01F03851D9263951DA22DF500C
:1011A0003EECEAF00009D8B4D8EF88F0DAEF88F026
:1011B000E5EF88F0060120EE0FF00F51D92610510F
:1011C000DA22010EDF6EE9EF86F0060120EE18F05C
:1011D0000F51D9261051DA2234C6DEF435C6DEF4BA
:1011E00036C6DEF437C6DEF420EE10F00F51D926F5
:1011F0001051DA22DEC417F6DDC418F6FF0E1715FB
:10120000196F010E18151A6F19510008326F1A5113
:10121000D8A0E82A0208336F3251135D33511459B4
:10122000D8B015EF89F017EF89F01BEF89F013C6DE
:1012300032F614C633F620EE10F00F51D9261051B5
:10124000DA22DEC417F6DDC418F6FF0E1715196F83
:10125000010E18151A6F19510F251B6F1A51102105
:101260001C6F220E1B25076E000E1C21086E28C65F
:1012700009F529C60AF532C60BF533C60CF5E2ECC2
:10128000F2F0060120EE0EF00F51D9261051DA22AD
:10129000000EDB8E3251135F3351145B15C6D9F447
:1012A00016C6DAF43251DE263351DD2232512827B8
:1012B0003351292320EE10F00F51D9261051DA2294
:1012C0003251DE263351DE22000EDE22DE2220EEF7
:1012D00010F00F51D9261051DA2210EE0AF00F51FA
:1012E000E1261051E222DE50E65CDE50E658DE5088
:1012F000E658DE50E658D8A080EF89F082EF89F0FA
:1013000092EF89F020EE0AF00F51D9261051DA221F
:10131000DEC423F6DEC424F6DEC425F6DEC426F6DB
:10132000A0EF89F020EE10F00F51D9261051DA22EB
:10133000DEC423F6DEC424F6DEC425F6DEC426F6BB
:1013400020EE0AF00F51D9261051DA2223C6DEF41E
:1013500024C6DEF425C6DEF426C6DEF4F0EF85F002
:1013600020EE0EF00F51D9261051DA22000EDB8C40
:10137000000E12000FC66CF510C66DF5320E050199
:101380006E6F060E6F6F2AECDCF006012D6F2D518B
:10139000D8A4CDEF89F0CFEF89F0D7EF89F020EE18
:1013A0000FF00F51D9261051DA22DF502D6F2D5139
:1013B000D8B4DDEF89F0DFEF89F0E2EF89F02D514D
:1013C000C5EF8DF020EE0AF00F51D9261051DA2228
:1013D0001151DE5C1251DE581351DE581451DE58A3
:1013E000D8B0F5EF89F0F7EF89F012EF8AF020EE30
:1013F0000EF00F51D9261051DA22DFB202EF8AF037
:1014000004EF8AF012EF8AF020EE0AF00F51D9268D
:101410001051DA22DEC411F6DEC412F6DEC413F671
:10142000DEC414F620EE10F00F51D9261051DA2246
:10143000DEC425F6DEC426F6DEC427F6DEC428F6B2
:10144000000E296F000E2A6F000E2B6F000E2C6FFE
:1014500020EE10F00F51D9261051DA2229C6DEF401
:101460002AC6DEF42BC6DEF42CC6DEF411511211AE
:1014700013111411D8B43FEF8AF041EF8AF0C6EF90
:101480008CF020EE0AF03251D9263351DA22DEC434
:1014900015F6DDC416F61551176F1651186F196B36
:1014A0001A6B090ED8901737183719371A37E82EE4
:1014B00052EF8AF017C62EF618C62FF619C630F668
:1014C0001AC631F62551261127112811D8B46BEF11
:1014D0008AF06DEF8AF00AEF8BF0FF0E1125076E90
:1014E000FF0E1221086EFF0E1321096EFF0E14214C
:1014F0000A6E2EC60BF52FC60CF530C60DF531C69B
:101500000EF567ECE8F007C515F608C516F609C52F
:1015100017F60AC518F6FF0E06012525076EFF0E01
:101520002621086EFF0E2721096EFF0E28210A6E64
:101530002EC60BF52FC60CF530C60DF531C60EF5CF
:1015400067ECE8F007500601155D08501659095080
:1015500017590A501859D8A0B0EF8AF0B2EF8AF0A4
:101560000AEF8BF0FF0E2E25156FFF0E2F21166F41
:10157000FF0E3021176FFF0E3121186F151D196FE7
:10158000161D1A6F171D1B6F181D1C6FFF0E2525CA
:101590001D6FFF0E26211E6FFF0E27211F6FFF0EEE
:1015A0002821206F19511D15216F1A511E15226F08
:1015B0001B511F15236F1C512015246F20EE10F0B6
:1015C0000F51D9261051DA2221C6DEF422C6DEF4EC
:1015D00023C6DEF424C6DEF420EE10F00F51D92627
:1015E0001051DA22DE50115FDE50125BDE50135BC9
:1015F000DD50145B20EE14F00F51D9261051DA2281
:10160000DEC434F6DEC435F6DEC436F6DEC437F6A4
:1016100086EF8BF020EE06F00F51D9261051DA221A
:10162000DEC434F6DEC435F6DEC436F6DEC437F684
:101630003451351136113711D8A421EF8BF023EF37
:101640008BF078EF8BF00FC6EFF510C6F0F5000EBB
:101650000501F16F000EF26F000EF36F000EF46FD4
:1016600068EC95F0EFC534F6F0C535F6F1C536F601
:10167000F2C537F606013405351136113711D8A4F5
:1016800044EF8BF046EF8BF051EF8BF020EE0FF034
:101690000F51D9261051DA22020EDF6E020EC5EF6D
:1016A0008DF034290AE1352908E1362906E1372988
:1016B000D8A45DEF8BF05FEF8BF06AEF8BF020EE3C
:1016C0000FF00F51D9261051DA22010EDF6E010EF4
:1016D000C5EF8DF020EE06F00F51D9261051DA2219
:1016E00034C6DEF435C6DEF436C6DEF437C6DEF4C4
:1016F00020EE14F00F51D9261051DA2234C6DEF450
:1017000035C6DEF436C6DEF437C6DEF434513511A4
:1017100036113711D8B48FEF8BF091EF8BF0C6EF05
:101720008CF04BEF8CF02E51115F2F51125B30512A
:10173000135B3151145B20EE10F00F51D92610517C
:10174000DA222E51DE262F51DE223051DE22315197
:10175000DE2220EE0EF00F51D9261051DA22DFA240
:10176000B4EF8BF0B6EF8BF0E2EF8BF00FC6EFF536
:1017700010C6F0F534C6F1F535C6F2F536C6F3F508
:1017800037C6F4F568EC95F0EFC534F6F0C535F6DC
:10179000F1C536F6F2C537F606013451351136116A
:1017A0003711D8A4D6EF8BF0D8EF8BF0F8EF8BF091
:1017B000000E116F000E126F000E136F000E146FEB
:1017C0005AEF8CF00FC6CEF510C6CFF534C6D0F563
:1017D00035C6D1F536C6D2F537C6D3F55AECA6F0E4
:1017E000CEC534F6CFC535F6D0C536F6D1C537F6F9
:1017F000060134290AE1352908E1362906E13729AD
:10180000D8A405EF8CF007EF8CF011EF8CF020EEF0
:101810000FF00F51D9261051DA22010EDF6E67EF5B
:101820008BF037513611351109E1020E345DD8A025
:101830001CEF8CF01EEF8CF033EF8CF020EE14F0E8
:101840003251D9263351DA22DE50345DDE5035591B
:10185000DE503659DE503759D8A031EF8CF033EFD7
:101860008CF03DEF8CF020EE0FF00F51D926105187
:10187000DA22020EDF6E4EEF8BF020EE14F00F51E5
:10188000D9261051DA2234C6DEF435C6DEF436C667
:10189000DEF437C6DEF411512E5D12512F5913516B
:1018A000305914513159D8A058EF8CF05AEF8CF0C0
:1018B00093EF8BF020EE10F00F51D9261051DA2261
:1018C0001151DE261251DE221351DE221451DE2286
:1018D000FF0E1115156F010E1215166F000E131560
:1018E000176F000E1415186F1551161117111811D6
:1018F000D8B47DEF8CF07FEF8CF0C6EF8CF032C661
:1019000020F533C621F534C622F535C623F536C693
:1019100024F537C625F554ECE3F020C529F621C59A
:101920002AF622C52BF623C52CF6060129512A11C9
:101930002B112C11D8A49FEF8CF0A1EF8CF0ABEF02
:101940008CF020EE0FF00F51D9261051DA22020E42
:10195000DF6E4EEF8BF011C615F612C616F613C6E3
:1019600017F614C618F60A0EBBEF8CF0D890183391
:10197000173316331533E82EB6EF8CF0155129279F
:1019800016512A2317512B2318512C2320EE10F027
:101990000F51D9261051DA2210EE0AF00F51E1262C
:1019A0001051E222DE50E65CDE50E658DE50E6588A
:1019B000DE50E658D8B0DFEF8CF0E1EF8CF0FDEFB1
:1019C0008CF020EE10F00F51D9261051DA2210EED3
:1019D0000AF00F51E1261051E222DEC4E6F4DEC423
:1019E000E6F4DEC4E6F4DEC4E6F420EE0EF00F51B9
:1019F000D9261051DA22000EDB8C20EE10F00F51A8
:101A0000D9261051DA22FF0EDE14156F010EDE14F6
:101A1000166F000EDE14176F000EDE14186F1551CE
:101A2000161117111811D8B418EF8DF01AEF8DF0A8
:101A3000DFEF89F020EE18F00F51D9261051DA228D
:101A40002951DE180FE12A51DE180CE12B51DE1866
:101A500009E12C51DE18D8B430EF8DF032EF8DF063
:101A6000DFEF89F020EE0EF00F51D9261051DA2267
:101A7000DFAE3DEF8DF03FEF8DF082EF8DF0220E67
:101A80000F250501A66F000E060110210501A76FA5
:101A9000060120EE18F00F51D9261051DA22DEC4CB
:101AA000A8F5DEC4A9F5DEC4AAF5DEC4ABF5000EC8
:101AB0000501AD6F010EAC6F060120EE01F0325151
:101AC000D9263351DA22DF50F1ECE9F00009D8B41D
:101AD0006CEF8DF06EEF8DF079EF8DF0060120EE5A
:101AE0000FF00F51D9261051DA22010EDF6E67EF89
:101AF0008BF0060120EE0EF00F51D9261051DA229C
:101B00007F0EDF16220E0F250501A86F000E0601BD
:101B100010210501A96F29C6AAF52AC6ABF52BC667
:101B2000ACF52CC6ADF5000EAF6F010EAE6F060121
:101B300020EE01F03251D9263351DA22DF503EEC4B
:101B4000EAF00009D8B4A7EF8DF0A9EF8DF0B4EF5B
:101B50008DF0060120EE0FF00F51D9261051DA2238
:101B6000010EDF6E67EF8BF0060120EE18F00F51CB
:101B7000D9261051DA2229C6DEF42AC6DEF42BC695
:101B8000DEF42CC6DEF4DFEF89F01200EAC509F6B8
:101B9000EBC50AF6EEC5D9F4EFC5DAF4DE6ADD6A04
:101BA000E8C56CF5E9C56DF5150E05016E6F060EFD
:101BB0006F6F2AECDCF00601046F0451D8A4E3EF48
:101BC0008DF0E5EF8DF0F7EF8DF0050120EE0FF0D1
:101BD000E851D926E951DA22DF500601046F045199
:101BE000D8B4F5EF8DF0F7EF8DF0FAEF8DF00451EA
:101BF0009FEF91F0050120EE0EF0E851D926E95152
:101C0000DA22DFB006EF8EF008EF8EF00BEF8EF0E9
:101C1000070E9FEF91F020EE10F0E851D926E95120
:101C2000DA22DEC4F0F5DEC4F1F5DEC4F2F5DEC47E
:101C3000F3F520EE0AF0E851D926E951DA22DEC4A4
:101C4000F4F5DEC4F5F5DEC4F6F5DEC4F7F5F051C3
:101C5000F45D0601006F0501F151F5590601016FB0
:101C60000501F251F6590601026F0501F351F759CA
:101C70000601036F0501EC51F06FED51F16FF26B4E
:101C8000F36BF0510601005D0501F15106010159A8
:101C90000501F251060102590501F35106010359EC
:101CA000D8B055EF8EF057EF8EF05BEF8EF000C698
:101CB000ECF501C6EDF50501EC51ED11D8A463EF8B
:101CC0008EF065EF8EF067EF8EF09EEF91F020EED4
:101CD00010F0E851D926E951DA22FF0EDE14F06F38
:101CE000010EDE14F16F000EDE14F26F000EDE1432
:101CF000F36FF051F111F211F311D8A482EF8EF0CD
:101D000084EF8EF025EF91F020EE10F0E851D92607
:101D1000E951DA22DEC4F0F5DEC4F1F5DEC4F2F5F5
:101D2000DEC4F3F50A0E9AEF8EF0D890F333F23357
:101D3000F133F033E82E95EF8EF0060120EE0AF035
:101D40001551D9261651DA22DEC4F4F5DDC4F5F5B5
:101D5000FF0E0501F425F66FFF0EF521F76FF05128
:101D6000F61506010B6F0501F151F71506010C6F11
:101D70000B510C11D8A4BFEF8EF0C1EF8EF042EFE3
:101D80008FF0050120EE10F0E851D926E951DA2252
:101D9000DE50DE10DE10DE10D8A4D1EF8EF0D3EFCF
:101DA0008EF0E3EF8EF020EE06F0E851D926E951EF
:101DB000DA22DEC405F6DEC406F6DEC407F6DEC4AB
:101DC00008F6FFEF8EF0E8C5CEF5E9C5CFF520EEB9
:101DD00014F0E851D926E951DA22DEC4D0F5DEC488
:101DE000D1F5DEC4D2F5DEC4D3F55AECA6F0CEC5EB
:101DF00005F6CFC506F6D0C507F6D1C508F606012B
:101E000008510711061107E1020E055DD8B00BEF6E
:101E10008FF00DEF8FF019EF8FF0050120EE0FF02E
:101E2000E851D926E951DA22020EDF6E020E9FEF49
:101E300091F005290AE1062908E1072906E10829A8
:101E4000D8A425EF8FF027EF8FF033EF8FF0050147
:101E500020EE0FF0E851D926E951DA22010EDF6EAB
:101E6000010E9FEF91F0050120EE14F0E851D92604
:101E7000E951DA2205C6DEF406C6DEF407C6DEF452
:101E800008C6DEF415C620F516C621F5050120EEBC
:101E900014F0E851D926E951DA22DEC422F5DEC475
:101EA00023F5DEC424F5DEC425F554ECE3F020C5AB
:101EB00011F621C512F622C513F623C514F6060144
:101EC0001151121113111411D8A469EF8FF06BEF97
:101ED0008FF076EF8FF0050120EE0FF0E851D92654
:101EE000E951DA22020EDF6E16EF8FF00B51112747
:101EF0000C511223000E1323000E1423ECC5F0F531
:101F0000EDC5F1F5090E0501F26FD890F133F0330C
:101F1000F22F85EF8FF0F0C50DF6F1C50EF6060134
:101F20000D510E11D8B497EF8FF099EF8FF081EF2C
:101F300090F00D510B250501F06F06010E510C219B
:101F40000501F16F060120EE0AF01551D926165150
:101F5000DA220501F051DE5CF151DE58D8B0B3EF62
:101F60008FF0B5EF8FF0CAEF8FF0060120EE0AF088
:101F70001551D9261651DA22DEC4F0F5DDC4F1F58B
:101F80000B510501F05D06010D6F0C510501F15972
:101F900006010E6F09C6A8F50AC6A9F511C6AAF56D
:101FA00012C6ABF513C6ACF514C6ADF50DC6AEF54D
:101FB0000EC6AFF5060120EE01F01551D9261651D7
:101FC000DA22DF503EECEAF00009D8B4EAEF8FF0F5
:101FD000ECEF8FF0F7EF8FF0050120EE0FF0E851F6
:101FE000D926E951DA22010EDF6E30EF8FF00501BC
:101FF00020EE0EF0E851D926E951DA22DFAE03EFE8
:1020000090F005EF90F06FEF90F006010D51050193
:10201000F06F06010E510501F16FF26BF36B20EECC
:1020200018F0E851D926E951DA22DEC4F4F5DEC40D
:10203000F5F5DEC4F6F5DEC4F7F50601115105012C
:10204000F45DF86F060112510501F559F96F0601AB
:1020500013510501F659FA6F060114510501F7599C
:10206000FB6FF051F85DF151F959F251FA59F35102
:10207000FB59D8B03EEF90F040EF90F06FEF90F04A
:1020800020EE18F0E851D926E951DA22DEC4F0F545
:10209000DDC4F1F5060111510501F05F0601125191
:1020A0000501F15B090ED890F037F137E82E53EFB8
:1020B00090F0F05106010925076E0501F151060166
:1020C0000A21086E220E0501E825096E000EE9219D
:1020D0000A6E020E0C6E000E0B6EE2ECF2F00DC6F4
:1020E000F0F50EC6F1F5090ED8900501F037F1377D
:1020F000E82E74EF90F0F0C50FF6F1C510F678EF0A
:1021000091F0050120EE18F0E851D926E951DA22C4
:1021100006011151DE180FE11251DE180CE11351C6
:10212000DE1809E11451DE18D8B499EF90F09BEF56
:1021300090F016EF91F0050120EE0EF0E851D9264F
:10214000E951DA22DFAEA7EF90F0A9EF90F0E7EFC8
:1021500090F0220EE825A66F000EE921A76F20EE71
:1021600018F0E851D926E951DA22DEC4A8F5DEC418
:10217000A9F5DEC4AAF5DEC4ABF5000EAD6F010E05
:10218000AC6F060120EE01F01551D9261651DA2266
:10219000DF50F1ECE9F00009D8B4D1EF90F0D3EFC3
:1021A00090F0DEEF90F0050120EE0FF0E851D92617
:1021B000E951DA22010EDF6E30EF8FF0050120EEDB
:1021C0000EF0E851D926E951DA227F0EDF16220EF1
:1021D000E825A86F000EE921A96F11C6AAF512C65D
:1021E000ABF513C6ACF514C6ADF5000EAF6F010E1E
:1021F000AE6F060120EE01F01551D9261651DA22F4
:10220000DF503EECEAF00009D8B409EF91F00BEF93
:1022100091F016EF91F0050120EE0FF0E851D9266C
:10222000E951DA22010EDF6E30EF8FF0050120EE6A
:1022300018F0E851D926E951DA2211C6DEF412C6A7
:10224000DEF413C6DEF414C6DEF420EE10F0E8511E
:10225000D926E951DA22DEC4F0F5DDC4F1F5FF0E2E
:10226000F015F26F010EF115F36FF251000806013F
:102270000F6F0501F351D8A0E82A02080601106F7C
:102280000F510501EC5D060110510501ED59D8B063
:102290004CEF91F04EEF91F052EF91F0ECC50FF64C
:1022A000EDC510F609C607F50AC608F520EE10F0D0
:1022B000E851D926E951DA22DEC4F0F5DDC4F1F5A2
:1022C000FF0EF015F26F010EF115F36FF251E825D4
:1022D000F46FF351E921F56F220EF425096E000E1B
:1022E000F5210A6E0FC60BF510C60CF5E2ECF2F004
:1022F00006010F510501EC5F060110510501ED5B70
:10230000EEC5D9F4EFC5DAF406010F51DE261051FF
:10231000DD220F51092710510A23050120EE10F08C
:10232000E851D926E951DA2206010F51DE26105173
:10233000DE22000EDE22DE225BEF8EF0000E1200A7
:102340000601AA51AB11D8A4A8EF91F0AAEF91F021
:10235000ADEF91F0090E67EF95F03F0EAE17AC0EA2
:102360000501FA6F060EFB6FCF0EFC6F060EFD6FB8
:10237000AEC6FEF500EC80F00601D16FD151D8A4B5
:10238000C4EF91F0C6EF91F057EF95F0CFC6D2F6BB
:10239000D0C6D3F6D20E2F6F060E306FACC631F614
:1023A000ADC632F69FECBAF00601D16FD151D8A478
:1023B000DCEF91F0DEEF91F0E7EF91F0F9AFE3EFB2
:1023C00091F0E5EF91F0E7EF91F0060ED16FAEC618
:1023D000AFF61C0EAF17D8B4F0EF91F0F2EF91F01A
:1023E0000EEF93F0D151D8B4F8EF91F0FAEF91F0ED
:1023F0000EEF92F0040ED119D8A401EF92F003EF82
:1024000092F00BEF92F0D20E326F060E336FF8ECB3
:10241000DFF00601D16FAE8726EF92F0D6C6AFF699
:10242000110EAF17D8B417EF92F019EF92F01DEF1D
:1024300092F0070ED16F26EF92F0AEA522EF92F048
:1024400024EF92F026EF92F0080ED16FD151D8A46C
:102450002CEF92F02EEF92F031EF93F0AEA733EF26
:1024600092F035EF92F031EF93F0E7ECF6F007C51C
:10247000BBF608C5BCF609C5BDF60AC5BEF60E0E0C
:102480000601EC25076E000EED21086EBBC609F5AE
:10249000BCC60AF5BDC60BF5BEC60CF56DECEFF07B
:1024A000160E0601EC25076E000EED21086EBBC668
:1024B00009F5BCC60AF5BDC60BF5BEC60CF56DEC3C
:1024C000EFF0CFC60EF5D0C60FF5ECC610F5EDC691
:1024D00011F58BECEDF00EC5BFF60FC5C0F610C5BB
:1024E000C1F611C5C2F6060120EE0BF0EC51D9265B
:1024F000ED51DA22200EDF6ECFC60BF5D0C60CF5FB
:10250000ECC60DF5EDC60EF5000E0F6E000E106E4A
:10251000000E116E000E126E0AECF3F01C0E060196
:10252000EC25076E000EED21086E000E096E000E00
:102530000A6E000E0B6E000E0C6E6DECEFF00601D5
:1025400020EE04F0CF51D926D051DA22010EDF6EF1
:10255000BF51C011C111C211D8B4B1EF92F0B3EFA5
:1025600092F031EF93F020EE2CF0CF51D926D051DC
:10257000DA22DEC4C3F6DEC4C4F6DEC4C5F6DEC4A9
:10258000C6F6D20E0501EF6F060EF06FBFC6F1F56D
:10259000C0C6F2F5C1C6F3F5C2C6F4F5000EF56F7C
:1025A000000EF66F000EF76F000EF86F63ECB8F0D8
:1025B0000601D16FD151D8A4E0EF92F0E2EF92F092
:1025C00031EF93F0CFC6C3F5D0C6C4F5C3C6C5F589
:1025D000C4C6C6F5C5C6C7F5C6C6C8F5BAECE3F0AD
:1025E0000601D16FFF0EBF25AF6FFF0EC021B06F88
:1025F000FF0EC121B16FFF0EC221B26F20EE0CF0B1
:10260000CF51D926D051DA22AFC6DEF4B0C6DEF4FF
:10261000B1C6DEF4B2C6DEF431EF93F0D151D8A4E6
:1026200014EF93F016EF93F031EF93F0D6A91BEF70
:1026300093F01DEF93F021EF93F0040ED16F31EF83
:1026400093F0AEA326EF93F028EF93F031EF93F0E1
:10265000D6A12DEF93F02FEF93F031EF93F0070E0B
:10266000D16FD151D8A437EF93F039EF93F05FEFEA
:1026700093F0AEA73EEF93F040EF93F041EF93F06D
:10268000AE8D20EE2CF0CF51D926D051DA2210EEAB
:102690001CF0AA51E126AB51E222DEC4E6F4DEC40E
:1026A000E6F4DEC4E6F4DEC4E6F420EE20F0AA513F
:1026B000D926AB51DA22ECC6DEF4EDC6DDF4D151F9
:1026C000D8A465EF93F067EF93F057EF95F0CFC67E
:1026D0000EF5D0C60FF5ECC610F5EDC611F58BEC76
:1026E000EDF0060120EE06F0AA51D926AB51DA2210
:1026F0000EC5DEF40FC5DEF410C5DEF411C5DEF440
:102700001C0EEC25076E000EED21086EA9ECE5F01D
:10271000060120EE0AF0AA51D926AB51DA2207C5EC
:10272000DEF408C5DEF409C5DEF40AC5DEF4AAC687
:10273000D9F4ABC6DAF4CFC6DEF4D0C6DDF420EEB1
:1027400006F0CF51D926D051DA2210EE02F0AA516C
:10275000E126AB51E222DEC4E6F4DDC4E5F420EE6E
:102760000EF0AA51D926AB51DA22AEC6DFF420EE24
:102770000FF0AA51D926AB51DA22DF6A20EE18F009
:10278000AA51D926AB51DA22DE6ADE6ADE6ADD6A38
:1027900020EE10F0AA51D926AB51DA22DE6ADE6AA9
:1027A000DE6ADD6A220EAA25076E000EAB21086ED6
:1027B000000E0A6E000E096E020E0C6E000E0B6EFD
:1027C0009AECF4F00601AEABE8EF93F0EAEF93F089
:1027D00057EF95F020EE0AF0AA51D926AB51DA2234
:1027E000DE50DE10DE10DE10D8B4F9EF93F0FBEF10
:1027F00093F057EF95F020EE0AF0AA51D926AB518D
:10280000DA2210EE10F0AA51E126AB51E222DEC42A
:10281000E6F4DEC4E6F4DEC4E6F4DEC4E6F420EE5C
:102820000AF0CF51D926D051DA22DEC4AFF6DDC48A
:10283000B0F6AF51B16FB051B26FB36BB46B090E5C
:10284000D890B137B237B337B437E82E20EF94F0D1
:10285000B1C6B7F6B2C6B8F6B3C6B9F6B4C6BAF6DC
:1028600020EE06F0AA51D926AB51DA22DEC4CBF60F
:10287000DEC4CCF6DEC4CDF6DEC4CEF620EE0AF021
:10288000AA51D926AB51DA22DEC4C7F6DEC4C8F697
:10289000DEC4C9F6DEC4CAF68CEF94F0AAC6CEF543
:1028A000ABC6CFF5CBC6D0F5CCC6D1F5CDC6D2F5EB
:1028B000CEC6D3F55AECA6F0CEC5CBF6CFC5CCF636
:1028C000D0C5CDF6D1C5CEF60601CE51CD11CC1175
:1028D00007E1020ECB5DD8B070EF94F072EF94F088
:1028E00074EF94F0020ED16FCB290AE1CC2908E1F4
:1028F000CD2906E1CE29D8A480EF94F082EF94F0A0
:1029000084EF94F0010ED16FB751C75FB851C85B27
:10291000B951C95BBA51CA5BD151D8A492EF94F0B6
:1029200094EF94F0A3EF94F0C751B75DC851B85934
:10293000C951B959CA51BA59D8A0A1EF94F0A3EF1F
:1029400094F04EEF94F020EE14F0AA51D926AB513A
:10295000DA22CBC6DEF4CCC6DEF4CDC6DEF4CEC6BB
:10296000DEF4D151D8A4B7EF94F0B9EF94F057EF5B
:1029700095F0FF0EC715AF6F010EC815B06F000EB2
:10298000C915B16F000ECA15B26FAF51B011B111B8
:10299000B211D8B4CEEF94F0D0EF94F057EF95F099
:1029A000CFC620F5D0C621F5CBC622F5CCC623F57F
:1029B000CDC624F5CEC625F554ECE3F020C5C3F60C
:1029C00021C5C4F622C5C5F623C5C6F60601C35106
:1029D000C411C511C611D8A4F0EF94F0F2EF94F031
:1029E000F6EF94F0020ED16F57EF95F0C7C6AFF631
:1029F000C8C6B0F6C9C6B1F6CAC6B2F60A0E06EF28
:102A000095F0D890B233B133B033AF33E82E01EF45
:102A100095F0C351AF25B36FC451B021B46FC55108
:102A2000B121B56FC651B221B66F20EE18F0AA5190
:102A3000D926AB51DA22B3C6DEF4B4C6DEF4B5C68D
:102A4000DEF4B6C6DEF4220EAA250501A86F000E3C
:102A50000601AB210501A96F060120EE18F0AA516D
:102A6000D926AB51DA22DEC4AAF5DEC4ABF5DEC44A
:102A7000ACF5DEC4ADF5000E0501AF6F010EAE6F13
:102A8000060120EE01F0CF51D926D051DA22DF50D5
:102A90003EECEAF00009D8B450EF95F052EF95F013
:102AA00057EF95F0010E0601D16F57EF95F0060133
:102AB000D151D8B45EEF95F060EF95F066EF95F0E8
:102AC000AAC6D9F4ABC6DAF4DE6ADD6AD1511200C7
:102AD000EFC5D9F4F0C5DAF4DEC409F6DDC40AF6B0
:102AE0000501F151F211F311F411D8A47AEF95F028
:102AF0007CEF95F0B5EF95F0060120EE0CF0095152
:102B0000D9260A51DA22DEC401F6DEC402F6DEC49A
:102B100003F6DEC404F60151021103110411D8B406
:102B200094EF95F096EF95F0ABEF95F020EE14F062
:102B30000951D9260A51DA22DE50015DDE500259D0
:102B4000DE500359DE500459D8A0A9EF95F0ABEF41
:102B500095F01BEF96F0010E016F000E026F000E54
:102B6000036F000E046F1BEF96F0EFC5CEF5F0C5B6
:102B7000CFF5F1C5D0F5F2C5D1F5F3C5D2F5F4C561
:102B8000D3F55AECA6F0CEC50BF6CFC50CF6D0C5E2
:102B90000DF6D1C50EF606010E510D110C1107E10F
:102BA000020E0B5DD8B0D7EF95F0D9EF95F0E4EFBA
:102BB00095F0010E0501EF6F000EF06F000EF16F42
:102BC000000EF26F50EF98F00B290AE10C2908E192
:102BD0000D2906E10E29D8A4F0EF95F0F2EF95F05B
:102BE000FCEF95F00BC6EFF50CC6F0F50DC6F1F550
:102BF0000EC6F2F550EF98F020EE14F00951D926E8
:102C00000A51DA22DE500B5DDE500C59DE500D59B0
:102C1000DE500E59D8B00FEF96F011EF96F013EF8B
:102C200096F0F2EF95F0F1C501F6F2C502F6F3C5A4
:102C300003F6F4C504F620EE10F00951D9260A5126
:102C4000DA22DE50DE10DE10DE10D8A42AEF96F075
:102C50002CEF96F037EF96F0000E0501EF6F000EA7
:102C6000F06F000EF16F000EF26F50EF98F0000E53
:102C7000056F000E066F000E076F000E086F05014E
:102C8000F1510601011913E10501F2510601021982
:102C90000EE10501F3510601031909E10501F451A3
:102CA00006010419D8A457EF96F059EF96F0FFEFFC
:102CB00096F0010E0125056F000E0221066F000E31
:102CC0000321076F000E0421086F20EE14F0095154
:102CD000D9260A51DA22DE50055DDE500659DE5053
:102CE0000759DE500859D8A078EF96F07AEF96F0A1
:102CF00082EF96F0020E056F000E066F000E076F52
:102D0000000E086FEFC5CEF5F0C5CFF505C6D0F5BE
:102D100006C6D1F507C6D2F508C6D3F55AECA6F01B
:102D2000CEC50BF6CFC50CF6D0C50DF6D1C50EF647
:102D300006010B050C110D110E11D8B4A2EF96F07F
:102D4000A4EF96F0F2EF95F00B290AE10C2908E1C7
:102D50000D2906E10E29D8A4B0EF96F0B2EF96F057
:102D6000B4EF96F0F2EF95F00B510C110D110E111E
:102D7000D8B4BDEF96F0BFEF96F0FFEF96F020EEDF
:102D80000CF00951D9260A51DA22DEC40BF6DEC452
:102D90000CF6DEC40DF6DEC40EF60E510D110C114C
:102DA00009E1020E0B5DD8A0D8EF96F0DAEF96F0AD
:102DB000F7EF96F020EE14F00951D9260A51DA22E5
:102DC000DE500B5DDE500C59DE500D59DE500E59B1
:102DD000D8B0EDEF96F0EFEF96F0F7EF96F00BC668
:102DE00001F60CC602F60DC603F60EC604F6000E7A
:102DF000056F000E066F000E076F000E086F05517D
:102E0000061107110811D8A408EF97F00AEF97F000
:102E100097EF97F001C605F602C606F603C607F659
:102E200004C608F6010E0527000E06230723082313
:102E300020EE14F00951D9260A51DA22DE50055D40
:102E4000DE500659DE500759DE500859D8A02BEF46
:102E500097F02DEF97F044EF97F0020E056F000EFC
:102E6000066F000E076F000E086F04510311021168
:102E700007E1020E015DD8B040EF97F042EF97F006
:102E800044EF97F02CEF96F0EFC5CEF5F0C5CFF5F7
:102E900005C6D0F506C6D1F507C6D2F508C6D3F5E6
:102EA0005AECA6F0CEC50BF6CFC50CF6D0C50DF684
:102EB000D1C50EF606010B510C110D110E11D8A43F
:102EC00064EF97F066EF97F068EF97F097EF97F061
:102ED0000B050C110D110E11D8B471EF97F073EFB3
:102EE00097F0F2EF95F00B290AE10C2908E10D2982
:102EF00006E10E29D8A47FEF97F081EF97F083EFDA
:102F000097F0F2EF95F0015105190DE10251061904
:102F10000AE10351071907E104510819D8A493EFF6
:102F200097F095EF97F012EF97F02CEF96F009C617
:102F3000CEF50AC6CFF505C6D0F506C6D1F507C64B
:102F4000D2F508C6D3F5FF0E0501D46FFF0ED56F7D
:102F5000FF0ED66FFF0ED76FFEEC9AF00601006FE2
:102F60000051D8A4B6EF97F0B8EF97F0DCEF97F0E8
:102F70000501F151F211F311F411D8B4C2EF97F039
:102F8000C4EF97F0DCEF97F009C6CEF50AC6CFF58F
:102F9000F1C5D0F5F2C5D1F5F3C5D2F5F4C5D3F539
:102FA00005C6D4F506C6D5F507C6D6F508C6D7F5C5
:102FB000FEEC9AF00601006F06010051D8A4E3EF81
:102FC00097F0E5EF97F032EF98F020EE0CF0095112
:102FD000D9260A51DA2205C6DEF406C6DEF407C693
:102FE000DEF408C6DEF420EE10F00951D9260A51AD
:102FF000DA2210EE14F00951E1260A51E222FE0E07
:10300000E6240501F96FFF0EE620FA6FFF0EE620B9
:10301000FB6FFF0EE620FC6FDE50F95DDE50FA59C3
:10302000DE50FB59DE50FC59D8A019EF98F01BEF89
:1030300098F027EF98F0060120EE10F00951D926FC
:103040000A51DA22DE06000EDE5ADE5ADE5A060188
:1030500020EE05F00951D9260A51DA22000EDB8054
:1030600048EF98F00005D8B438EF98F03AEF98F0B0
:1030700044EF98F0010E056F000E066F000E076F0B
:10308000000E086F48EF98F005690669076908693E
:1030900005C6EFF506C6F0F507C6F1F508C6F2F568
:1030A000120037C5D9F438C5DAF4DEC4F6F4DDC44D
:1030B000F7F4000EF86E0800F550250AD8A463EF67
:1030C00098F065EF98F0E7EF9AF037C5D9F438C576
:1030D000DAF4DE2A000EDD22000E556E000E546E6C
:1030E00054C558F507011C691D69436A98EF98F0AB
:1030F000588237C5D9F438C5DAF4DE2A000EDD224D
:1031000098EF98F0010E436E98EF98F037C5D9F418
:1031100038C5DAF4DEC4F6F4DDC4F7F4000EF86E58
:103120000800F550300AD8B478EF98F082EF98F0A4
:103130004350D8B49EEF98F0A0EF98F086EF98F047
:1031400037C507F538C508F539C509F53AC50AF593
:10315000EEECE2F007C554F508C555F555BEB5EFE0
:1031600098F0B3EF98F0BAEF98F05880546C551E71
:10317000D8B0552A37C5D9F438C5DAF4DEC4F6F428
:10318000DDC4F7F4000EF86E0800F550630AD8A409
:10319000CCEF98F0CEEF98F0F1EF98F037C5D9F476
:1031A00038C5DAF4DE2A000EDD2239C5D9F43AC575
:1031B000DAF4DFC43BF5020EDE26DFC43CF5000E78
:1031C000DD223BC5D9F43CC5DAF4DF50446E35C589
:1031D00011F536C512F544C513F584ECE4F0FDEFA6
:1031E0009AF037C5D9F438C5DAF4DEC445F5DDC444
:1031F00046F545C5F6F446C5F7F4000EF86E08002E
:10320000F5C444F50FEF99F0454A462A26EF99F0A8
:10321000690E446E26EF99F0446A26EF99F0445007
:10322000580AD8B408EF99F03C0AD8B408EF99F0DE
:103230000D0AD8B408EF99F0050AD8B404EF99F054
:10324000140AD8B408EF99F00CEF99F045C5F6F4DC
:1032500046C5F7F4000EF86E0800F550640AD8B4BD
:1032600034EF99F036EF99F07DEF99F045C5F6F41B
:1032700046C5F7F4000EF86E0800F550690AD8A4A8
:1032800044EF99F046EF99F0A6EF99F07DEF99F0B1
:1032900039C5D9F43AC5DAF4DFC43BF5020EDE26AF
:1032A000DFC43CF5000EDD223BC5D9F43CC5DAF4A1
:1032B000DEC43FF5DDC440F5000E40BEFF0E416E9A
:1032C000426E88EF99F039C5D9F43AC5DAF4DFC413
:1032D0003BF5040EDE26DFC43CF5000EDD223BC5C7
:1032E000D9F43CC5DAF4DEC43FF5DEC440F5DEC4F3
:1032F00041F5DEC442F588EF99F04450690AD8B42C
:1033000048EF99F0050AD8B463EF99F088EF99F087
:10331000010E45243B6E000E46203C6E37C5D9F4A5
:1033200038C5DAF43BC5DEF43CC5DDF435C521F51E
:1033300036C522F53FC523F540C524F541C525F521
:1033400042C526F5B4ECC7F0FDEF9AF045C5F6F49A
:1033500046C5F7F4000EF86E0800F550780AD8B4A8
:10336000B4EF99F0B6EF99F0FEEF99F045C5F6F499
:1033700046C5F7F4000EF86E0800F550580AD8A4B8
:10338000C4EF99F0C6EF99F044EF9AF0FEEF99F090
:1033900039C5D9F43AC5DAF4DFC43BF5020EDE26AE
:1033A000DFC43CF5000EDD223BC5D9F43CC5DAF4A0
:1033B000DEC43DF5DDC43EF53DC53FF53EC540F5F7
:1033C000416A426A09EF9AF039C5D9F43AC5DAF48C
:1033D000DFC43BF5040EDE26DFC43CF5000EDD2223
:1033E0003BC5D9F43CC5DAF4DEC43FF5DEC440F594
:1033F000DEC441F5DEC442F509EF9AF04450690A93
:10340000D8B4C8EF99F0050AD8B4E4EF99F009EF01
:103410009AF0010E45243B6E000E46203C6E37C5E7
:10342000D9F438C5DAF43BC5DEF43CC5DDF432EF3F
:103430009AF035C521F536C522F53FC523F540C5BF
:1034400024F541C525F542C526F545C5F6F446C522
:10345000F7F4000EF86E0800F5C427F53CECD4F044
:10346000FDEF9AF045C5F6F446C5F7F4000EF86E88
:103470000800F550580AD8B419EF9AF0200AD8B4C9
:1034800019EF9AF044EF9AF0436A37C5D9F438C57A
:10349000DAF4DEC4F6F4DDC4F7F4000EF86E0800CA
:1034A000F550730AD8A457EF9AF059EF9AF064EFE9
:1034B0009AF037C5D9F438C5DAF4DE2A000EDD22D9
:1034C000010E436EBAEF9AF037C5D9F438C5DAF475
:1034D000DEC4F6F4DDC4F7F4000EF86E0800F55013
:1034E0006C0AD8A476EF9AF078EF9AF0BAEF9AF0D7
:1034F00037C5D9F438C5DAF4DEC43BF5DDC43CF594
:10350000010E3B26000E3C223BC5F6F43CC5F7F409
:10351000000EF86E0800F5506C0AD8A492EF9AF0ED
:1035200094EF9AF0BAEF9AF037C5D9F438C5DAF4C7
:10353000DEC43BF5DDC43CF5020E3B26000E3C220A
:103540003BC5F6F43CC5F7F4000EF86E0800F550E4
:10355000730AD8A4AEEF9AF0B0EF9AF0BAEF9AF0EF
:10356000030E37C5D9F438C5DAF4DE26000EDD22A5
:1035700060EF9AF04350D8B4C0EF9AF0C2EF9AF0DF
:10358000DEEF9AF035C511F536C512F539C5D9F417
:103590003AC5DAF4DFC43BF5020EDE26DFC43CF5A3
:1035A000000EDD223BC5D9F43CC5DAF4DEC413F5C8
:1035B000DDC414F537ECD0F0FDEF9AF037C5D9F43F
:1035C00038C5DAF4DE2A000EDD22FDEF9AF037C5A9
:1035D000D9F438C5DAF4DEC4F6F4DDC4F7F4000E2D
:1035E000F86E0800F550086E096A35C50AF536C54B
:1035F0000BF51FECE4F0DEEF9AF01200020E05016D
:10360000EE6FD351D211D11109E1020ED05DD8A0D5
:103610000CEF9BF00EEF9BF072EF9DF020EE14F09C
:10362000CE51D926CF51DA22DE50D05DDE50D159AD
:10363000DE50D259DE50D359D8B021EF9BF023EFA2
:103640009BF072EF9DF05FEF9DF0D0C5ECF5D1C51A
:10365000EDF5D890ED31D96FEC31D86FD851EC271A
:10366000D951ED23CEC5C3F5CFC5C4F520EE20F06A
:10367000CE51D926CF51DA22DEC4D8F5DEC4D9F531
:10368000DEC4DAF5DEC4DBF5ECC5DCF5EDC5DDF551
:10369000090EDE6FD890DD33DC33DE2F4AEF9BF06E
:1036A000DC51D825C56FDD51D921C66F000EDA2156
:1036B000C76F000EDB21C86FBAECE3F00501EE6FB7
:1036C000EE51D8B466EF9BF068EF9BF06AEF9BF089
:1036D00072EF9DF0FF0EEC15D86F010EED15D96F4E
:1036E000D851CE25DA6FD951CF21DB6F300EDA25D4
:1036F000EA6F000EDB21EB6FEC4BED2BD0B183EFCB
:103700009BF085EF9BF08AEF9BF0D4C5E6F5E76B65
:10371000A4EF9BF0D451D86FD96BD83BD93BF00EB6
:10372000D917D8510F0BD913F00ED817EAC5D9F411
:10373000EBC5DAF4DF500F0BDA6FDB6BD851DA111F
:10374000E66FD951DB11E76FEAC5D9F4EBC5DAF4BE
:10375000E6C5DFF420EE04F0CE51D926CF51DA22AF
:10376000010EDF6ECEC5C3F5CFC5C4F520EE20F047
:10377000CE51D926CF51DA22DEC4D8F5DEC4D9F530
:10378000DEC4DAF5DEC4DBF5ECC5DCF5EDC5DDF550
:10379000090EDE6FD890DD33DC33DE2FCAEF9BF0ED
:1037A000DC51D825C56FDD51D921C66F000EDA2155
:1037B000C76F000EDB21C86FBAECE3F00501EE6FB6
:1037C000EE51D8B4E6EF9BF0E8EF9BF0EAEF9BF008
:1037D00072EF9DF0FF0EEC15D86F010EED15D96F4D
:1037E000D851CE25DA6FD951CF21DB6F300EDA25D3
:1037F000EA6F000EDB21EB6FD0B101EF9CF003EF1D
:103800009CF021EF9CF0D4C5D8F5D5C5D9F5D6C527
:10381000DAF5D7C5DBF5D9C5D8F5DAC5D9F5DBC5F5
:10382000DAF5DB6B0F0ED817EAC5D9F4EBC5DAF47D
:10383000DF50F00BD811DC6FDC51E86FE96B37EF2C
:103840009CF0D4C5D8F5D5C5D9F5D6C5DAF5D7C518
:10385000DBF5050E31EF9CF0D890DB33DA33D9334A
:10386000D833E82E2CEF9CF0D851E86FE96BEAC50D
:10387000D9F4EBC5DAF4E8C5DFF420EE04F0CE515C
:10388000D926CF51DA22010EDF6E72EF9DF0CEC540
:10389000C3F5CFC5C4F520EE20F0CE51D926CF51C7
:1038A000DA22DEC4D8F5DEC4D9F5DEC4DAF5DEC42A
:1038B000DBF5D0C5DCF5D1C5DDF5D2C5DEF5D3C568
:1038C000DFF5DDC5DCF5DEC5DDF5DFC5DEF5DF6B7B
:1038D000D851DC25C56FD951DD21C66FDA51DE2103
:1038E000C76FDB51DF21C86FBAECE3F00501EE6F63
:1038F000EE51D8B47EEF9CF080EF9CF082EF9CF00C
:1039000072EF9DF0D0C5D8F5D1C5D9F5D890D8378C
:10391000D937FF0ED815DA6F010ED915DB6FDA51E2
:10392000CE25DC6FDB51CF21DD6F300EDC25076E3D
:10393000000EDD21086ED4C509F5D5C50AF56BEC7E
:10394000F5F0050120EE04F0CE51D926CF51DA2250
:10395000010EDF6E72EF9DF0CEC5C3F5CFC5C4F585
:1039600020EE20F0CE51D926CF51DA22DEC4D8F590
:10397000DEC4D9F5DEC4DAF5DEC4DBF5D0C5DCF58E
:10398000D1C5DDF5D2C5DEF5D3C5DFF5080ECEEF26
:103990009CF0D890DF33DE33DD33DC33E82EC9EF23
:1039A0009CF0D851DC25C56FD951DD21C66FDA51A5
:1039B000DE21C76FDB51DF21C86FBAECE3F00501F0
:1039C000EE6FEE51D8B4E7EF9CF0E9EF9CF0EBEF2F
:1039D0009CF072EF9DF0D0C5D8F5D1C5D9F5D8903F
:1039E000D837D937D890D837D937FF0ED815DA6FEE
:1039F000010ED915DB6FDA51CE25DC6FDB51CF21FB
:103A0000DD6F300EDC25076E000EDD21086EA9EC9F
:103A1000E5F0000E07140501DE6F000E0814DF6FDD
:103A2000000E0914E06FF00E0A14E16FFF0ED415BA
:103A3000E26FFF0ED515E36FFF0ED615E46F0F0E84
:103A4000D715E56FDE51E211D46FDF51E311D56F69
:103A5000E051E411D66FE151E511D76FD0C5D8F52B
:103A6000D1C5D9F5D890D837D937D890D837D937E4
:103A7000FF0ED815DA6F010ED915DB6FDA51CE259E
:103A8000DC6FDB51CF21DD6F300EDC25076E000EC1
:103A9000DD21086ED4C509F5D5C50AF5D6C50BF5E7
:103AA000D7C50CF56DECEFF0050120EE04F0CE511A
:103AB000D926CF51DA22010EDF6E72EF9DF0CEC50E
:103AC000D9F4CFC5DAF4DF50010AD8B425EF9BF062
:103AD000030AD8B447EF9CF0010AD8B4ACEF9CF0CD
:103AE00072EF9DF0EE5112000701436B446B1EEC28
:103AF000E2F0000E086E050E076EA7ECDBF06AEC34
:103B0000EBF0A90E0501606FFE0E616FBA0E626FD9
:103B1000FA0E636F7FECF5F0F8ECF5F0E9ECF5F0F8
:103B200009ECEEF061ECF4F0C2ECE7F051C530F7CF
:103B300052C531F7F6ECB5F040ECF2F00601B7BF34
:103B4000A6EF9DF0A4EF9DF0A8EF9DF0A6EF9DF0ED
:103B50008CECADF00601FBBFB2EF9DF0B0EF9DF035
:103B6000D4EF9DF0B2EF9DF0F90E7E25D96FFF0ED8
:103B70007F21DA6F7EC707F57FC708F5A7ECDBF07A
:103B8000F7EF9DF0000EDA6F040ED96FBAEF9DF0DB
:103B9000000EDA6F050ED96FBAEF9DF0000EDA6FE6
:103BA000000ED96FF7EF9DF07EC7D3F77FC7D4F72C
:103BB0000701D451000AD8B4E0EF9DF0CEEF9DF09C
:103BC000D351080AD8B4B4EF9DF0010AD8B4B4EFC9
:103BD0009DF0030AD8B4B4EF9DF0060AD8B4C2EF42
:103BE0009DF01C0AD8B4C8EF9DF0CEEF9DF0220ED8
:103BF0000501606FFE0E616FD8900701D935D96E4F
:103C0000DA35DA6E540ED926080EDA22DEC462F5F1
:103C1000DDC463F57FECF5F005ECF7F0000E07016D
:103C2000636F000E626F000E656F000E646F000E12
:103C3000D66F010ED56F000E416F000E406F9D0EC6
:103C40000501606FFE0E616F7FECF5F0C80E050197
:103C5000606FFC0E616F7FECF5F0870E0501606F01
:103C6000FC0E616F7FECF5F0710E0501606FFC0ECC
:103C7000616F7FECF5F0390E0501606FFB0E616F2F
:103C80007FECF5F00F0E0501606FFF0E616F7FECAA
:103C9000F5F0150E0501606FFC0E616F7FECF5F01D
:103CA000910E0501606FFE0E616F7FECF5F0E40E82
:103CB0000501606FFE0E616F7FECF5F0FB0E0501F4
:103CC000606FFF0E616F7FECF5F055ECF3F007C508
:103CD000D9F708C5DAF7D00E0701D925D76FFF0E3F
:103CE000DA21D86FD8BF77EF9EF079EF9EF094EF8E
:103CF0009EF0D8BF87EF9EF0D85107E1080ED75D40
:103D0000D8B085EF9EF087EF9EF094EF9EF0D951EA
:103D1000C1ECF6F0080EC1ECF6F0D00E0701D92583
:103D2000D56FFF0EDA21D66F0D0ED919DA11D8B47E
:103D30009CEF9EF09EEF9EF0A8EF9EF00A0ED91920
:103D4000DA11D8A4A6EF9EF0A8EF9EF065EF9EF0E2
:103D5000830E0501606FF40E616F7FECF5F0E40EE9
:103D60000701196F630E1A6F010E1B6F000EDA6FD9
:103D7000000ED96F7FEF9FF019ECA2F00EEF9EF0CE
:103D8000770E0601FA6FFE0EFB6F7CC707F57DC745
:103D900008F57AC709F57BC70AF5EEECF4F007C51C
:103DA000FCF608C5FDF609C5FEF60AC5FFF622ECCD
:103DB000CAF0FAC6D9F7FBC6DAF7A9EF9FF05D0E95
:103DC000AB6FFE0EAC6FAAECDCF0ABC7D9F7ACC79B
:103DD000DAF7A9EF9FF06A0EAB6FFE0EAC6FAAEC9C
:103DE000DCF0ABC7D9F7ACC7DAF7A9EF9FF0CD0E7F
:103DF000AB6FFE0EAC6FAAECDCF0ABC7D9F7ACC76B
:103E0000DAF7A9EF9FF0C10EAB6FFE0EAC6FAAEC14
:103E1000DCF0ABC7D9F7ACC7DAF7A9EF9FF0830E98
:103E20000601B16FFF0EB26FB5ECD6F00601B151CD
:103E3000B211D8B41EEF9FF020EF9FF022EF9FF059
:103E40000EEF9EF0000EFB6F010EFA6FAEECBBF0B2
:103E50000601FBBF30EF9FF02EEF9FF039EF9FF090
:103E6000F20E0501606FFC0E616F7FECF5F00EEF56
:103E70009EF09DECC2F00701AB51AC11D8B443EFFA
:103E80009FF045EF9FF0A9EF9FF00EEF9EF08C0E94
:103E90000601B16FFF0EB26FB5ECD6F00601B1515D
:103EA000B211D8B456EF9FF058EF9FF05AEF9FF041
:103EB0000EEF9EF0000EFB6F020EFA6FAEECBBF041
:103EC0000601FBBF68EF9FF066EF9FF071EF9FF078
:103ED000F20E0501606FFC0E616F7FECF5F00EEFE6
:103EE0009EF03AECB7F00701AB51AC11D8B47BEFC0
:103EF0009FF07DEF9FF0A9EF9FF00EEF9EF0D5C7EA
:103F0000D3F7D6C7D4F7D451000AD8B48AEF9FF0BC
:103F100047EF9FF0D351000AD8B4BCEF9EF0010ADE
:103F2000D8B4C0EF9EF0030AD8B4DFEF9EF0010AC8
:103F3000D8B4EBEF9EF0070AD8B4F7EF9EF0010A71
:103F4000D8B403EF9FF0030AD8B40FEF9FF047EF08
:103F50009FF00701D951DA11D8B4B1EF9FF0B3EF58
:103F60009FF0BCEF9FF01A0E0501606FFA0E616FB3
:103F70007FECF5F00EEF9EF0830E0501606FF40EFE
:103F8000616F7FECF5F0E3ECF3F0C8ECECF00EEFD2
:103F90009EF085EF00F0366A000E376E000E386E28
:103FA000000E396E000E3A6E20C53BF521C53CF57A
:103FB00025BEE6EF9FF0255007E1250E245CD8B022
:103FC000E4EF9FF0E6EF9FF0EFEF9FF02404251061
:103FD000D8A4EDEF9FF0EFEF9FF0F6EF9FF0000E0B
:103FE00007011F6F160E1E6FF4EFA1F03B503C103F
:103FF000D8B4FDEF9FF0FFEF9FF0F4EFA1F03BC5C9
:10400000D9F43CC5DAF4DF50D8A409EFA0F00BEFE7
:10401000A0F00DEFA0F0F4EFA1F03BC5D9F43CC542
:10402000DAF4DF503D6E1DEFA0F03B4A3C2A3BC561
:10403000D9F43CC5DAF4DF503D6E200E3D18D8B4FB
:1040400024EFA0F026EFA0F015EFA0F03DC527F576
:10405000F70E2726040E276430EFA0F032EFA0F011
:1040600015EFA0F02D0E3D18D8A439EFA0F03BEFCE
:10407000A0F047EFA0F0010E366E3B4A3C2A3BC54C
:10408000D9F43CC5DAF4DF503D6E52EFA0F02B0EB0
:104090003D18D8A44EEFA0F050EFA0F052EFA0F0E2
:1040A0003DEFA0F0300E3D18D8A459EFA0F05BEF23
:1040B000A0F0F4EFA0F03B4A3C2A3BC5D9F43CC544
:1040C000DAF4DF503D6E24502510D8B46AEFA0F02A
:1040D0006CEFA0F076EFA0F0100E24182510D8A4F5
:1040E00074EFA0F076EFA0F0E6EFA0F0780E3D18A8
:1040F000D8B47DEFA0F07FEFA0F088EFA0F0580ECD
:104100003D18D8A486EFA0F088EFA0F0E6EFA0F06D
:10411000000E256E100E246E3B4A3C2A3BC5D9F496
:104120003CC5DAF4DF503D6E3DC527F5200E271261
:104130009F0E27261A0E2760A0EFA0F0A2EFA0F096
:10414000C6EFA0F03DC527F59F0E2726190E276460
:10415000ACEFA0F0AEEFA0F0B3EFA0F03DC52EF5B0
:104160002F6ABAEFA0F03DC527F55F0E271627503E
:104170002E6E2F6A2EC527F5C90E2726100E276032
:10418000C4EFA0F0C6EFA0F0E0EFA0F03DC527F52A
:10419000200E27129F0E2726190E2764D2EFA0F0BB
:1041A000D4EFA0F0F4EFA0F03DC527F5D00E272600
:1041B000090E2764DEEFA0F0E0EFA0F0F4EFA0F02E
:1041C00036843B06D8A03C06F4EFA1F03684245098
:1041D0002510D8A4EEEFA0F0F0EFA0F0F4EFA0F0DF
:1041E000000E256E080E246E24502510D8A4FBEF77
:1041F000A0F0FDEFA0F001EFA1F0000E256E0A0E79
:10420000246E2650D8B407EFA1F009EFA1F024EFF7
:10421000A1F036B00EEFA1F010EFA1F01AEFA1F06F
:10422000FF0E326EFF0E336EFF0E346E7F0E356E54
:1042300028EFA1F0000E326E000E336E000E346EC9
:10424000800E356E28EFA1F0326833683468356827
:1042500037C52AF538C52BF539C52CF53AC52DF5E6
:104260003DC527F5200E27129F0E27261A0E276020
:104270003CEFA1F03EEFA1F05BEFA1F03DC527F5CB
:104280009F0E2726190E276448EFA1F04AEFA1F0F0
:104290004FEFA1F03DC530F5316A56EFA1F03DC5B5
:1042A00027F55F0E27162750306E316A3050C90F40
:1042B0003D6E69EFA1F03DC527F5D00E27260A0E09
:1042C000276065EFA1F067EFA1F0E2EFA1F0300EFB
:1042D0003D5E3D50276E286A2450275C2850800A96
:1042E000296E2550800A2958D8A079EFA1F07BEFDC
:1042F000A1F07DEFA1F0E2EFA1F036B282EFA1F0E4
:1043000084EFA1F0D7EFA1F024C514F525C515F56C
:10431000000E15BEFF0E166E176E37C518F538C5A0
:1043200019F539C51AF53AC51BF5A3ECEFF03D5068
:104330001424376E000E1520386E000E1620396ECC
:10434000000E17203A6E2A50375C2B5038582C50EC
:1043500039582D503A58D8A0B0EFA1F0B2EFA1F0E3
:10436000C9EFA1F02650D8B4B8EFA1F0BAEFA1F090
:10437000D7EFA1F03750325C3850335839503458A9
:104380003A503558D8B0C7EFA1F0C9EFA1F0D7EF38
:10439000A1F032C537F533C538F534C539F535C523
:1043A0003AF5000E07011F6F220E1E6F36823B4A40
:1043B0003C2A3BC5D9F43CC5DAF4DF503D6E368467
:1043C00028EFA1F03650030BE806D8A4EAEFA1F0DD
:1043D000ECEFA1F0F4EFA1F03A1E391E381E376C55
:1043E000000E382239223A2222502310D8B4FBEF93
:1043F000A1F0FDEFA1F010EFA2F036B402EFA2F0B1
:1044000004EFA2F008EFA2F020C53BF521C53CF572
:1044100022C5D9F423C5DAF43BC5DEF43CC5DDF48E
:1044200037C520F538C521F539C522F53AC523F53C
:1044300012000501776B5CC712F55DC713F57E0EA0
:10444000146E050E156E7A0E166E050E176E7C0E26
:10445000186E050E196E1EECD6F005017F5109E1AC
:10446000500E7E5DD8A037EFA2F039EFA2F03FEFFB
:10447000A2F06C0E7E27070E7F2343EFA2F0D00E32
:104480007E27070E7F232C0E0501606FFC0E616FE7
:104490007EC562F57FC563F57AC564F57BC565F5B4
:1044A0007CC566F57DC567F57FECF5F05A0E050114
:1044B000786F1B0E796F78C56CF579C56DF5000EB8
:1044C0006F6F500E6E6FFAECD8F005016C516D11E4
:1044D000D8B46DEFA2F06FEFA2F03FEFA3F078C574
:1044E00012F579C513F5800E146E050E156E840E47
:1044F000166E050E176E820E186E050E196E24ECE0
:10450000DEF012501310D8B488EFA2F08AEFA2F0B8
:1045100093EFA2F01D0E0501606FFB0E616F7FEC43
:10452000F5F043EFA2F0BC0E0501805D070E815946
:10453000D8A09DEFA2F09FEFA2F0AAEFA2F0200E6C
:10454000805D080E8159D8A0A8EFA2F0AAEFA2F0D2
:10455000B2EFA2F01D0E606FFB0E616F7FECF5F005
:1045600043EFA2F0855107E10D0E845DD8B0BBEF9B
:10457000A2F0BDEFA2F0C6EFA2F084518511D8A43D
:10458000C4EFA2F0C6EFA2F0CEEFA2F01D0E606F56
:10459000FB0E616F7FECF5F043EFA2F0020E841981
:1045A0008511D8A4D6EFA2F0D8EFA2F0FCEFA2F0CC
:1045B0001D0E82198311D8A4E0EFA2F0E2EFA2F061
:1045C000FCEFA2F080C50CF581C50DF53FECECF0D9
:1045D0000C500D10D8B4EFEFA2F0F1EFA2F0F3EF12
:1045E000A2F030EFA3F01D0E0501606FFB0E616FAE
:1045F0007FECF5F043EFA2F084C573F585C574F543
:10460000D89073377437FE0E7325756FFF0E7421C3
:10461000766F2D0E7525F66EF40E7621F76EF86A1C
:10462000000EF82282510900F55C83510900F5580B
:10463000D8A01DEFA3F01FEFA3F028EFA3F0825145
:104640008311D8A426EFA3F028EFA3F030EFA3F056
:104650001D0E606FFB0E616F7FECF5F043EFA2F073
:1046600080C57EF581C57FF584C57AF585C57BF566
:1046700082C57CF583C57DF5010E0501776F5FC7A7
:1046800080F5816B5EC784F5856B61C782F5836BAE
:10469000430E0501606FFC0E616F5FC762F5636BCF
:1046A0005EC764F5656B61C766F5676B7FECF5F017
:1046B0005A0E0501786F1B0E796F78C56CF579C5B8
:1046C0006DF5000E6F6F500E6E6FFAECD8F00501AD
:1046D0006C516D11D8B46FEFA3F071EFA3F0DCEF64
:1046E000A3F078C512F579C513F5800E146E050E8A
:1046F000156E840E166E050E176E820E186E050E60
:10470000196E24ECDEF012501310D8B48AEFA3F027
:104710008CEFA3F095EFA3F01D0E0501606FFB0E6B
:10472000616F7FECF5F048EFA3F00501815109E1DD
:10473000180E805DD8A09FEFA3F0A1EFA3F0A9EF22
:10474000A3F01D0E606FFB0E616F7FECF5F048EF7C
:10475000A3F0855109E13C0E845DD8A0B2EFA3F02F
:10476000B4EFA3F0BCEFA3F01D0E606FFB0E616F02
:104770007FECF5F048EFA3F0835109E13C0E825D38
:10478000D8A0C5EFA3F0C7EFA3F0CFEFA3F01D0EA5
:10479000606FFB0E616F7FECF5F048EFA3F0A19E18
:1047A00080C55FF784C55EF782C561F70BECF0F05A
:1047B000A18E010E0501776F7751D8B4E2EFA3F017
:1047C000E4EFA3F044EFA4F07EC518F57FC519F51A
:1047D0007AC51AF57BC51BF57CC51CF57DC51DF595
:1047E00048ECE1F018C55CF719C55DF707013051D9
:1047F0003111D8B4FEEFA3F000EFA4F01EEFA4F047
:104800000BECF0F0000E076E070E086E550E096EE9
:10481000070E0A6ED00E8BECEAF0FF0AD8A413EF55
:10482000A4F015EFA4F01EEFA4F0070E0501606FD1
:10483000FB0E616F7FECF5F044EFA4F08D0E0501E7
:10484000606FF90E616F7EC562F57FC563F57AC54D
:1048500064F57BC565F57CC566F57DC567F57FECC0
:10486000F5F0FF0E0501606FF90E616F80C562F50E
:1048700081C563F584C564F585C565F582C566F5B2
:1048800083C567F57FECF5F012000FC6D9F410C6AA
:10489000DAF4DEC423F6DDC424F6060120EE0EF0C1
:1048A0000F51D9261051DA22DEC413F6DEC414F6F5
:1048B000DEC415F6DEC416F6200E13251F6F000E9B
:1048C0001421206F000E1521216F000E1621226F7A
:1048D000225109E1200E215DD8A071EFA4F073EF01
:1048E000A4F07DEFA4F020EE16F00F51D926105160
:1048F000DA22DE6ADE6ADE6ADD6A20EE16F00F5129
:10490000D9261051DA22DE50DE10DE10DE10D8A4D7
:104910008CEFA4F08EEFA4F091EFA4F0040E59EF09
:10492000A6F0FF0E1F15136F010E2015146F000E59
:104930002115156F000E2215166F13511411151144
:104940001611D8A4A6EFA4F0A8EFA4F030EFA6F0BB
:1049500020EE16F00F51D9261051DA22DE2A000E71
:10496000DE22DE22DE2220EE12F00F51D926105177
:10497000DA22DE50DE10DE10DE10D8A4C2EFA4F082
:10498000C4EFA4F002EFA5F020EE08F02351D926E1
:104990002451DA22DEC413F6DDC414F61351156F68
:1049A0001451166F176B186B1FC619F620C61AF62E
:1049B00021C61BF622C61CF6060EE4EFA4F0D89022
:1049C0001C331B331A331933E82EDFEFA4F01551D3
:1049D000195D16511A5917511B5918511C59D8A055
:1049E000F4EFA4F0F6EFA4F030EFA6F020EE16F00E
:1049F0000F51D9261051DA22DE6ADE6ADE6ADD6ADC
:104A00008EEFA4F020EE0AF02351D9262451DA22A9
:104A1000DEC413F6DDC414F6FF0E1325156FFF0E6A
:104A20001421166F1FC617F620C618F621C619F6F0
:104A300022C61AF60A0E22EFA5F0D8901A331933BF
:104A400018331733E82E1DEFA5F0155117151B6FFE
:104A5000165118151C6F000E19151D6F000E1A1532
:104A60001E6F1B511C111D111E11D8A43AEFA5F089
:104A70003CEFA5F030EFA6F00FC6CEF510C6CFF58F
:104A800020EE12F00F51D9261051DA22DEC4D0F5F3
:104A9000DEC4D1F5DEC4D2F5DEC4D3F55AECA6F0FF
:104AA000CEC525F6CFC526F6D0C527F6D1C528F642
:104AB000060128512711261107E1020E255DD8B005
:104AC00064EFA5F066EFA5F069EFA5F0020E59EFCF
:104AD000A6F025290AE1262908E1272906E1282947
:104AE000D8A475EFA5F077EFA5F07AEFA5F0010E49
:104AF00059EFA6F020EE14F02351D9262451DA22E2
:104B0000DE50255DDE502659DE502759DE502859EB
:104B1000D8A08DEFA5F08FEFA5F004EFA6F011510E
:104B20001211D8A496EFA5F098EFA5F0A4EFA5F088
:104B300020EE16F00F51D9261051DA22DE6ADE6A15
:104B4000DE6ADD6A8EEFA4F00FC6EFF510C6F0F551
:104B500020EE12F00F51D9261051DA22DEC4F1F501
:104B6000DEC4F2F5DEC4F3F5DEC4F4F568EC95F0CE
:104B7000EFC525F6F0C526F6F1C527F6F2C528F6ED
:104B800006012551261127112811D8A4CAEFA5F036
:104B9000CCEFA5F0CFEFA5F0070E59EFA6F0250555
:104BA000261127112811D8A4D8EFA5F0DAEFA5F027
:104BB000DCEFA5F066EFA5F025290AE1262908E13A
:104BC000272906E12829D8A4E8EFA5F0EAEFA5F007
:104BD000ECEFA5F077EFA5F023C6C3F524C6C4F526
:104BE00025C6C5F526C6C6F527C6C7F528C6C8F525
:104BF00047ECD2F00009D8B400EFA6F002EFA6F01F
:104C000004EFA6F077EFA5F0060120EE12F00F51A9
:104C1000D9261051DA2225C6DEF426C6DEF427C6D0
:104C2000DEF428C6DEF423C620F524C621F525C609
:104C300022F526C623F527C624F528C625F554EC0B
:104C4000E3F0060120EE16F00F51D9261051DA22BA
:104C500020C5DEF421C5DEF422C5DEF423C5DEF472
:104C600020EE0EF00F51D9261051DA221FC6DEF4C5
:104C700020C6DEF421C6DEF422C6DEF4FF0E1F15C8
:104C8000136F010E2015146F13512325156F145146
:104C90002421166F300E1527000E162320EE1AF071
:104CA0000F51D9261051DA2215C6DEF416C6DDF4EE
:104CB000000E1200CEC5D9F4CFC5DAF4DEC4E6F595
:104CC000DDC4E7F50501D351D211D11109E1020E7E
:104CD000D05DD8A06EEFA6F070EFA6F085EFA6F03D
:104CE00020EE14F0E651D926E751DA22DE50D05DED
:104CF000DE50D159DE50D259DE50D359D8A083EFBF
:104D0000A6F085EFA6F08FEFA6F0010EE06F000E83
:104D1000E16F000EE26F000EE36F47EFA8F0E0696D
:104D2000E169E269E36934EFA8F0D0C5E4F5D1C5E3
:104D3000E5F5D890E531D56FE431D46FD451E4274F
:104D4000D551E523E6C5C3F5E7C5C4F520EE20F04F
:104D5000E651D926E751DA22DEC4D4F5DEC4D5F512
:104D6000DEC4D6F5DEC4D7F5E4C5D8F5E5C5D9F57A
:104D7000090EDA6FD890D933D833DA2FBAEFA6F00C
:104D8000D851D425C56FD951D521C66F000ED62173
:104D9000C76F000ED721C86FBAECE3F00009D8B492
:104DA000D4EFA6F0D6EFA6F0D8EFA6F047EFA8F024
:104DB000FF0E0501E415D46F010EE515D56FD45132
:104DC000E625D66FD551E721D76F300ED625D96E9F
:104DD000000ED721DA6EDF50D86FD851DE6FDF6B4F
:104DE000E44BE52BE6C5C3F5E7C5C4F520EE20F09E
